{
  "contracts/JustPay.sol": {
    "JustPayContract": {
      "abi": [
        {
          "inputs": [
            {
              "internalType": "address",
              "name": "_signer",
              "type": "address"
            },
            {
              "internalType": "address",
              "name": "_operator",
              "type": "address"
            }
          ],
          "stateMutability": "nonpayable",
          "type": "constructor"
        },
        {
          "anonymous": false,
          "inputs": [
            {
              "indexed": true,
              "internalType": "uint256",
              "name": "amount",
              "type": "uint256"
            }
          ],
          "name": "depositForBurnEvent",
          "type": "event"
        },
        {
          "anonymous": false,
          "inputs": [
            {
              "indexed": false,
              "internalType": "address",
              "name": "to",
              "type": "address"
            },
            {
              "indexed": false,
              "internalType": "uint256",
              "name": "amount",
              "type": "uint256"
            }
          ],
          "name": "tokenTransferEvent",
          "type": "event"
        },
        {
          "anonymous": false,
          "inputs": [
            {
              "indexed": true,
              "internalType": "uint32",
              "name": "chainId",
              "type": "uint32"
            },
            {
              "indexed": true,
              "internalType": "uint256",
              "name": "nonceUsed",
              "type": "uint256"
            }
          ],
          "name": "usedNoncesEvent",
          "type": "event"
        },
        {
          "inputs": [
            {
              "internalType": "address",
              "name": "aaveV3",
              "type": "address"
            },
            {
              "internalType": "address",
              "name": "asset",
              "type": "address"
            },
            {
              "internalType": "uint256",
              "name": "amount",
              "type": "uint256"
            }
          ],
          "name": "depositToAAVE",
          "outputs": [],
          "stateMutability": "nonpayable",
          "type": "function"
        },
        {
          "inputs": [],
          "name": "operator",
          "outputs": [
            {
              "internalType": "address",
              "name": "",
              "type": "address"
            }
          ],
          "stateMutability": "view",
          "type": "function"
        },
        {
          "inputs": [
            {
              "internalType": "address",
              "name": "burnToken",
              "type": "address"
            },
            {
              "internalType": "uint256",
              "name": "maxFee",
              "type": "uint256"
            },
            {
              "internalType": "uint32",
              "name": "minFinalityThreshold",
              "type": "uint32"
            },
            {
              "internalType": "uint256[]",
              "name": "sourceChainIds",
              "type": "uint256[]"
            },
            {
              "internalType": "uint256[]",
              "name": "amountEach",
              "type": "uint256[]"
            },
            {
              "internalType": "uint256[]",
              "name": "nonces",
              "type": "uint256[]"
            },
            {
              "internalType": "uint256",
              "name": "expirey",
              "type": "uint256"
            },
            {
              "internalType": "uint256",
              "name": "destinationChainId",
              "type": "uint256"
            },
            {
              "internalType": "address",
              "name": "targetAddress",
              "type": "address"
            },
            {
              "internalType": "bytes",
              "name": "signature",
              "type": "bytes"
            }
          ],
          "name": "proxyDepositForBurn",
          "outputs": [],
          "stateMutability": "nonpayable",
          "type": "function"
        },
        {
          "inputs": [
            {
              "internalType": "address",
              "name": "burnToken",
              "type": "address"
            },
            {
              "internalType": "uint256",
              "name": "maxFee",
              "type": "uint256"
            },
            {
              "internalType": "uint32",
              "name": "minFinalityThreshold",
              "type": "uint32"
            },
            {
              "internalType": "uint256[]",
              "name": "sourceChainIds",
              "type": "uint256[]"
            },
            {
              "internalType": "uint256[]",
              "name": "amountEach",
              "type": "uint256[]"
            },
            {
              "internalType": "uint256[]",
              "name": "nonces",
              "type": "uint256[]"
            },
            {
              "internalType": "uint256",
              "name": "expirey",
              "type": "uint256"
            },
            {
              "internalType": "uint256",
              "name": "destinationChainId",
              "type": "uint256"
            },
            {
              "internalType": "address",
              "name": "targetAddress",
              "type": "address"
            },
            {
              "internalType": "address",
              "name": "aaveV3",
              "type": "address"
            },
            {
              "internalType": "uint256",
              "name": "amountWithdrawFromAAVE",
              "type": "uint256"
            },
            {
              "internalType": "bytes",
              "name": "signature",
              "type": "bytes"
            }
          ],
          "name": "proxyDepositForBurnV2",
          "outputs": [],
          "stateMutability": "nonpayable",
          "type": "function"
        },
        {
          "inputs": [
            {
              "internalType": "bytes",
              "name": "message",
              "type": "bytes"
            },
            {
              "internalType": "bytes",
              "name": "attestation",
              "type": "bytes"
            }
          ],
          "name": "proxyReceiveMessage",
          "outputs": [],
          "stateMutability": "nonpayable",
          "type": "function"
        },
        {
          "inputs": [
            {
              "internalType": "address",
              "name": "token",
              "type": "address"
            },
            {
              "internalType": "uint256[]",
              "name": "sourceChainIds",
              "type": "uint256[]"
            },
            {
              "internalType": "uint256[]",
              "name": "amountEach",
              "type": "uint256[]"
            },
            {
              "internalType": "uint256[]",
              "name": "nonces",
              "type": "uint256[]"
            },
            {
              "internalType": "uint256",
              "name": "expirey",
              "type": "uint256"
            },
            {
              "internalType": "uint256",
              "name": "destinationChainId",
              "type": "uint256"
            },
            {
              "internalType": "address",
              "name": "targetAddress",
              "type": "address"
            },
            {
              "internalType": "bytes",
              "name": "signature",
              "type": "bytes"
            }
          ],
          "name": "proxyTransfer",
          "outputs": [],
          "stateMutability": "nonpayable",
          "type": "function"
        },
        {
          "inputs": [
            {
              "internalType": "uint256[]",
              "name": "sourceChainIds",
              "type": "uint256[]"
            },
            {
              "internalType": "uint256[]",
              "name": "amountEach",
              "type": "uint256[]"
            },
            {
              "internalType": "uint256[]",
              "name": "nonces",
              "type": "uint256[]"
            },
            {
              "internalType": "uint256",
              "name": "expirey",
              "type": "uint256"
            },
            {
              "internalType": "uint256",
              "name": "destinationChainId",
              "type": "uint256"
            },
            {
              "internalType": "address",
              "name": "targetAddress",
              "type": "address"
            },
            {
              "internalType": "bytes",
              "name": "signature",
              "type": "bytes"
            }
          ],
          "name": "signatureVerifier",
          "outputs": [
            {
              "components": [
                {
                  "internalType": "uint256",
                  "name": "sourceChainId",
                  "type": "uint256"
                },
                {
                  "internalType": "uint256",
                  "name": "amount",
                  "type": "uint256"
                },
                {
                  "internalType": "uint256",
                  "name": "nonce",
                  "type": "uint256"
                },
                {
                  "internalType": "uint256",
                  "name": "destinationChainId",
                  "type": "uint256"
                },
                {
                  "internalType": "address",
                  "name": "targetAddress",
                  "type": "address"
                }
              ],
              "internalType": "struct JustPayContract.LocalSignature",
              "name": "",
              "type": "tuple"
            }
          ],
          "stateMutability": "nonpayable",
          "type": "function"
        },
        {
          "inputs": [],
          "name": "signer",
          "outputs": [
            {
              "internalType": "address",
              "name": "",
              "type": "address"
            }
          ],
          "stateMutability": "view",
          "type": "function"
        },
        {
          "inputs": [
            {
              "internalType": "uint256",
              "name": "",
              "type": "uint256"
            }
          ],
          "name": "usedNonces",
          "outputs": [
            {
              "internalType": "bool",
              "name": "",
              "type": "bool"
            }
          ],
          "stateMutability": "view",
          "type": "function"
        }
      ],
      "evm": {
        "bytecode": {
          "linkReferences": {},
          "object": "6080346100f7576116bf90601f38839003908101601f19168201906001600160401b038211838310176100fc57808391604095869485528339810103126100f75781816100596020610052600b95610112565b9201610112565b60018060a01b031990738fe6b999dc680ccfdd5bf7eb0974218be2542daa82600454161760045573e737e5cebeeba77efe34d4aa090756590b1ce27582600554161760055560018060a01b03908160009416838554161784551690600154161760015562aa36a781526003602052808281205561a869815260018282205562014a34815260068282205561e705815220555161159890816101278239f35b600080fd5b634e487b7160e01b600052604160045260246000fd5b51906001600160a01b03821682036100f75756fe6040608081526004908136101561001557600080fd5b600091823560e01c918263017bf6bb146100d157505080915063238ac933146100c857806348eef5b6146100bf5780634b8c3676146100b6578063570ca735146100ad5780636717e41c146100a45780636fe5c1c21461009b578063bf37e8c6146100925763d56dc8df1461008a575b600080fd5b610085610973565b50610085610862565b506100856107a4565b50610085610772565b50610085610748565b5061008561069a565b506100856105e3565b50610085610465565b83919250346103d05760603660031901126103d0576100ee6103d4565b6100f66103ea565b60443591828660018060a01b039361011385600154163314610f65565b875487516323b872dd60e01b81526001600160a01b03909116838201908152306020808301919091526040820195909552868316919085908290819003606001818d865af180156103c3575b6103a6575b508388518092818c816101a38d63095ea7b360e01b9a8b8452830191906020604084019373364687aaf0a70c418fe5ff8e9746b254f319b33e81520152565b03925af18015610399575b61037c575b5073364687aaf0a70c418fe5ff8e9746b254f319b33e803b15610378578751630df791e560e41b81526001600160a01b03909216828b0190815273ba50cd2a20f6da35d788639e581bca8d0b5d4d5f6020820152604081018890528991839182908490829060600103925af1801561036b575b610358575b5085519081526001600160a01b0383168882019081526020810186905282908290819060400103818a73ba50cd2a20f6da35d788639e581bca8d0b5d4d5f5af1801561034b575b61031d575b50508454911691906001600160a01b031692823b15610319575163617ba03760e01b815273ba50cd2a20f6da35d788639e581bca8d0b5d4d5f95810195865260208601919091526001600160a01b03909216604085015260006060850152909283919082908490829060800103925af1801561030c575b6102f6575080f35b80610303610309926104a6565b8061045a565b80f35b610314610c3a565b6102ee565b8480fd5b8161033c92903d10610344575b61033481836104c7565b8101906110ca565b503880610277565b503d61032a565b610353610c3a565b610272565b80610303610365926104a6565b3861022b565b610373610c3a565b610226565b8880fd5b61039290843d86116103445761033481836104c7565b50386101b3565b6103a1610c3a565b6101ae565b6103bc90853d87116103445761033481836104c7565b5038610164565b6103cb610c3a565b61015f565b5080fd5b600435906001600160a01b038216820361008557565b602435906001600160a01b038216820361008557565b60c435906001600160a01b038216820361008557565b61010435906001600160a01b038216820361008557565b61012435906001600160a01b038216820361008557565b60a435906001600160a01b038216820361008557565b600091031261008557565b5034610085576000366003190112610085576000546040516001600160a01b039091168152602090f35b50634e487b7160e01b600052604160045260246000fd5b67ffffffffffffffff81116104ba57604052565b6104c261048f565b604052565b90601f8019910116810190811067ffffffffffffffff8211176104ba57604052565b6040519060a0820182811067ffffffffffffffff8211176104ba57604052565b9080601f830112156100855781359067ffffffffffffffff8211610571575b8160051b6040519360209361053f858401876104c7565b85528380860192820101928311610085578301905b828210610562575050505090565b81358152908301908301610554565b61057961048f565b610528565b81601f820112156100855780359067ffffffffffffffff82116105d6575b604051926105b4601f8401601f1916602001856104c7565b8284526020838301011161008557816000926020809301838601378301015290565b6105de61048f565b61059c565b503461008557610100366003190112610085576105fe6103d4565b67ffffffffffffffff9060243582811161008557610620903690600401610509565b9060443583811161008557610639903690600401610509565b9160643584811161008557610652903690600401610509565b9161065b610400565b9260e4359586116100855761067761068596369060040161057e565b9460a4359360843593610fb1565b005b6044359063ffffffff8216820361008557565b503461008557610140366003190112610085576106b56103d4565b6106bd610687565b67ffffffffffffffff91606435838111610085576106df903690600401610509565b91608435848111610085576106f8903690600401610509565b9160a43585811161008557610711903690600401610509565b610719610416565b93610124359687116100855761073661068597369060040161057e565b9560e4359460c4359460243590611143565b5034610085576000366003190112610085576001546040516001600160a01b039091168152602090f35b5034610085576020366003190112610085576004356000526002602052602060ff604060002054166040519015158152f35b503461008557610180366003190112610085576107bf6103d4565b6107c7610687565b67ffffffffffffffff9190606435838111610085576107ea903690600401610509565b9060843584811161008557610803903690600401610509565b9260a4358581116100855761081c903690600401610509565b91610825610416565b9161082e61042d565b93610164359788116100855761084b61068598369060040161057e565b96610144359660e4359460c43594602435906113b7565b50346100855760e03660031901126100855767ffffffffffffffff60043581811161008557610895903690600401610509565b90602435818111610085576108ae903690600401610509565b604435828111610085576108c6903690600401610509565b906108cf610444565b9060c43593841161008557610941946108ef6108fd95369060040161057e565b936084359260643592610c87565b60405191829182919091608060a0820193805183526020810151602084015260408101516040840152606081015160608401528160018060a01b0391015116910152565b0390f35b9181601f840112156100855782359167ffffffffffffffff8311610085576020838186019501011161008557565b5034610085576003196040368201126100855767ffffffffffffffff600435818111610085576109a7903690600401610945565b602492919235918211610085576020926000610a11926109ce610a02953690600401610945565b94909760018060a01b036005541695604051998a9889978896630afd9fa560e31b8852604060048901526044880191611396565b92858403016024860152611396565b03925af18015610a39575b610a2257005b6106859060203d81116103445761033481836104c7565b610a41610c3a565b610a1c565b6040519060a0820182811067ffffffffffffffff821117610a83575b60405260006080838281528260208201528260408201528260608201520152565b610a8b61048f565b610a62565b15610a9757565b60405162461bcd60e51b81526020600482015260146024820152731cda59db985d1d5c99481a5cc8195e1c1a5c995960621b6044820152606490fd5b50634e487b7160e01b600052601160045260246000fd5b9060018201809211610af857565b610b00610ad3565b565b8051821015610b165760209160051b010190565b634e487b7160e01b600052603260045260246000fd5b15610b3357565b60405162461bcd60e51b815260206004820152601b60248201527f6e6f7420617574686f72697a656420736f7572636520636861696e00000000006044820152606490fd5b15610b7f57565b60405162461bcd60e51b815260206004820152600b60248201526a6e6f6e636520757365642160a81b6044820152606490fd5b90815180825260208080930193019160005b828110610bd2575050505090565b835185529381019392810192600101610bc4565b949192610c1560a095989794610c07610c239460c08a5260c08a0190610bb2565b9088820360208a0152610bb2565b908682036040880152610bb2565b9560608501526080840152600180831b0316910152565b506040513d6000823e3d90fd5b15610c4e57565b60405162461bcd60e51b8152602060048201526011602482015270496e76616c6964207369676e617475726560781b6044820152606490fd5b90949392610c93610a46565b50610c9f814210610a90565b60009687805b8451811015610eca5746610cb98287610b02565b5114610ccd57610cc890610aea565b610ca5565b8899508693915085928589929586948580946001610eba9f610e8e9c610e879b610da4610e809b602099600099610d67610e369a610d0d610e109a610b2c565b610d44610d3f610d3b610d34610d23858c610b02565b516000526002602052604060002090565b5460ff1690565b1590565b610b78565b610d61610d54610d23838a610b02565b805460ff19166001179055565b86610b02565b519460405197889663ffffffff46167f4d2424583f69260833c556539a5b832bbd7b4173f59d25210b776bec668373d28f80a38d87019788610be6565b0391610db8601f19938481018352826104c7565b51902090610e076040519182610dfb8a82019586603c917f19457468657265756d205369676e6564204d6573736167653a0a3332000000008252601c8201520190565b039081018352826104c7565b51902091610f01565b6040805194855260ff909116602085015283019190915260608201529081906080820190565b838052039060015afa15610ebd575b600080519054610e7b9190610e6a906001600160a01b03165b6001600160a01b031690565b6001600160a01b0390911614610c47565b610b02565b5198610b02565b5192610b02565b5190610e986104e9565b9586526020860152604085015260608401526001600160a01b03166080830152565b90565b610ec5610c3a565b610e45565b50610e80818560206000610e36610e87978e9f610eba9f8f9c8f8f90610e8e9f8b9f91610da492610d678e610d0d610e109a610b2c565b6041815103610f20576020810151916060604083015192015160001a90565b60405162461bcd60e51b815260206004820152601860248201527f696e76616c6964207369676e6174757265206c656e67746800000000000000006044820152606490fd5b15610f6c57565b60405162461bcd60e51b815260206004820152601960248201527f596f7520617265206e6f7420746865206f70657261746f7221000000000000006044820152606490fd5b909161102360808761101561100d7f2c4f4f63ca317b393c3b566783ff16738e546a073789d71acfe23fc03bc9184c9c60009c61102b9c6110699c60209c8a6110089d60018060a01b039e8f600154163314610f65565b610c87565b9146146110c3565b01516001600160a01b031690565b9586916110e2565b87546040516323b872dd60e01b81526001600160a01b0391821660048201529216602483015260448201819052969094859384929183906064820190565b0393165af180156110b6575b611098575b50604080516001600160a01b039290921682526020820192909252a1565b6110af9060203d81116103445761033481836104c7565b503861107a565b6110be610c3a565b611075565b1561008557565b90816020910312610085575180151581036100855790565b600090805182905b8082106110f75750505090565b909193926001906111088487610b02565b518101809111611136575b926000198114611129575b0190939192936110ea565b611131610ad3565b61111e565b61113e610ad3565b611113565b95909792999893946111699597929760018060a01b039b6110088d600154163314610f65565b9260209261119661118c6060868801519701516000526003602052604060002090565b5463ffffffff1690565b9060009461125581886111b5610e5e610e5e8b5460018060a01b031690565b9b881661120483838c6111cf60045460018060a01b031690565b60405163095ea7b360e01b81526001600160a01b03909116600482015260248101929092529092839190829081906044820190565b0391865af18015611389575b61136c575b5089546040516323b872dd60e01b81526001600160a01b0390911660048201523060248201526044810192909252909283919082908b9082906064820190565b03925af1801561135f575b611341575b505060045461127e90610e5e906001600160a01b031681565b92833b1561133d57604051634701287760e11b81526004810188905263ffffffff938416602482015260448101999099526001600160a01b0390941660648901526000608489015260a488019390935290911660c4860152929391927fef170ff2108a9a34ffae60c98d6e9eff09d2f464437449bb09dd4231ced1cf5892908290829081838160e4810103925af18015611330575b61131d575b5080a2565b8061030361132a926104a6565b38611318565b611338610c3a565b611313565b8580fd5b8161135792903d106103445761033481836104c7565b503880611265565b611367610c3a565b611260565b61138290843d86116103445761033481836104c7565b5038611215565b611391610c3a565b611210565b908060209392818452848401376000828201840152601f01601f1916010190565b97929590969199989b9a93946113de9560018060a01b039761100889600154163314610f65565b94602061140061118c6060838a01519901516000526003602052604060002090565b92818860009861141c610e5e610e5e8c5460018060a01b031690565b9c81611442575b505061125592881661120483838c6111cf60045460018060a01b031690565b90925083915016803b1561037857604051631a4ca37b60e21b815273ba50cd2a20f6da35d788639e581bca8d0b5d4d5f6004820152602481018390523060448201529089908290606490829084905af18015611555575b611542575b5073364687aaf0a70c418fe5ff8e9746b254f319b33e803b1561037857604051630df791e560e41b815273ba50cd2a20f6da35d788639e581bca8d0b5d4d5f60048201526001600160a01b038916602482015260448101929092526112559284928b928b908290606490829084905af18015611535575b611522575b819450611423565b8061030361152f926104a6565b3861151a565b61153d610c3a565b611515565b8061030361154f926104a6565b3861149e565b61155d610c3a565b61149956fea264697066735822122054c2fa529b5dd32a36660e7845177378bbc4e4e40db99ce8184df529d8dfbeee64736f6c63430008110033",
          "opcodes": "PUSH1 0x80 CALLVALUE PUSH2 0xF7 JUMPI PUSH2 0x16BF SWAP1 PUSH1 0x1F CODESIZE DUP4 SWAP1 SUB SWAP1 DUP2 ADD PUSH1 0x1F NOT AND DUP3 ADD SWAP1 PUSH1 0x1 PUSH1 0x1 PUSH1 0x40 SHL SUB DUP3 GT DUP4 DUP4 LT OR PUSH2 0xFC JUMPI DUP1 DUP4 SWAP2 PUSH1 0x40 SWAP6 DUP7 SWAP5 DUP6 MSTORE DUP4 CODECOPY DUP2 ADD SUB SLT PUSH2 0xF7 JUMPI DUP2 DUP2 PUSH2 0x59 PUSH1 0x20 PUSH2 0x52 PUSH1 0xB SWAP6 PUSH2 0x112 JUMP JUMPDEST SWAP3 ADD PUSH2 0x112 JUMP JUMPDEST PUSH1 0x1 DUP1 PUSH1 0xA0 SHL SUB NOT SWAP1 PUSH20 0x8FE6B999DC680CCFDD5BF7EB0974218BE2542DAA DUP3 PUSH1 0x4 SLOAD AND OR PUSH1 0x4 SSTORE PUSH20 0xE737E5CEBEEBA77EFE34D4AA090756590B1CE275 DUP3 PUSH1 0x5 SLOAD AND OR PUSH1 0x5 SSTORE PUSH1 0x1 DUP1 PUSH1 0xA0 SHL SUB SWAP1 DUP2 PUSH1 0x0 SWAP5 AND DUP4 DUP6 SLOAD AND OR DUP5 SSTORE AND SWAP1 PUSH1 0x1 SLOAD AND OR PUSH1 0x1 SSTORE PUSH3 0xAA36A7 DUP2 MSTORE PUSH1 0x3 PUSH1 0x20 MSTORE DUP1 DUP3 DUP2 KECCAK256 SSTORE PUSH2 0xA869 DUP2 MSTORE PUSH1 0x1 DUP3 DUP3 KECCAK256 SSTORE PUSH3 0x14A34 DUP2 MSTORE PUSH1 0x6 DUP3 DUP3 KECCAK256 SSTORE PUSH2 0xE705 DUP2 MSTORE KECCAK256 SSTORE MLOAD PUSH2 0x1598 SWAP1 DUP2 PUSH2 0x127 DUP3 CODECOPY RETURN JUMPDEST PUSH1 0x0 DUP1 REVERT JUMPDEST PUSH4 0x4E487B71 PUSH1 0xE0 SHL PUSH1 0x0 MSTORE PUSH1 0x41 PUSH1 0x4 MSTORE PUSH1 0x24 PUSH1 0x0 REVERT JUMPDEST MLOAD SWAP1 PUSH1 0x1 PUSH1 0x1 PUSH1 0xA0 SHL SUB DUP3 AND DUP3 SUB PUSH2 0xF7 JUMPI JUMP INVALID PUSH1 0x40 PUSH1 0x80 DUP2 MSTORE PUSH1 0x4 SWAP1 DUP2 CALLDATASIZE LT ISZERO PUSH2 0x15 JUMPI PUSH1 0x0 DUP1 REVERT JUMPDEST PUSH1 0x0 SWAP2 DUP3 CALLDATALOAD PUSH1 0xE0 SHR SWAP2 DUP3 PUSH4 0x17BF6BB EQ PUSH2 0xD1 JUMPI POP POP DUP1 SWAP2 POP PUSH4 0x238AC933 EQ PUSH2 0xC8 JUMPI DUP1 PUSH4 0x48EEF5B6 EQ PUSH2 0xBF JUMPI DUP1 PUSH4 0x4B8C3676 EQ PUSH2 0xB6 JUMPI DUP1 PUSH4 0x570CA735 EQ PUSH2 0xAD JUMPI DUP1 PUSH4 0x6717E41C EQ PUSH2 0xA4 JUMPI DUP1 PUSH4 0x6FE5C1C2 EQ PUSH2 0x9B JUMPI DUP1 PUSH4 0xBF37E8C6 EQ PUSH2 0x92 JUMPI PUSH4 0xD56DC8DF EQ PUSH2 0x8A JUMPI JUMPDEST PUSH1 0x0 DUP1 REVERT JUMPDEST PUSH2 0x85 PUSH2 0x973 JUMP JUMPDEST POP PUSH2 0x85 PUSH2 0x862 JUMP JUMPDEST POP PUSH2 0x85 PUSH2 0x7A4 JUMP JUMPDEST POP PUSH2 0x85 PUSH2 0x772 JUMP JUMPDEST POP PUSH2 0x85 PUSH2 0x748 JUMP JUMPDEST POP PUSH2 0x85 PUSH2 0x69A JUMP JUMPDEST POP PUSH2 0x85 PUSH2 0x5E3 JUMP JUMPDEST POP PUSH2 0x85 PUSH2 0x465 JUMP JUMPDEST DUP4 SWAP2 SWAP3 POP CALLVALUE PUSH2 0x3D0 JUMPI PUSH1 0x60 CALLDATASIZE PUSH1 0x3 NOT ADD SLT PUSH2 0x3D0 JUMPI PUSH2 0xEE PUSH2 0x3D4 JUMP JUMPDEST PUSH2 0xF6 PUSH2 0x3EA JUMP JUMPDEST PUSH1 0x44 CALLDATALOAD SWAP2 DUP3 DUP7 PUSH1 0x1 DUP1 PUSH1 0xA0 SHL SUB SWAP4 PUSH2 0x113 DUP6 PUSH1 0x1 SLOAD AND CALLER EQ PUSH2 0xF65 JUMP JUMPDEST DUP8 SLOAD DUP8 MLOAD PUSH4 0x23B872DD PUSH1 0xE0 SHL DUP2 MSTORE PUSH1 0x1 PUSH1 0x1 PUSH1 0xA0 SHL SUB SWAP1 SWAP2 AND DUP4 DUP3 ADD SWAP1 DUP2 MSTORE ADDRESS PUSH1 0x20 DUP1 DUP4 ADD SWAP2 SWAP1 SWAP2 MSTORE PUSH1 0x40 DUP3 ADD SWAP6 SWAP1 SWAP6 MSTORE DUP7 DUP4 AND SWAP2 SWAP1 DUP6 SWAP1 DUP3 SWAP1 DUP2 SWAP1 SUB PUSH1 0x60 ADD DUP2 DUP14 DUP7 GAS CALL DUP1 ISZERO PUSH2 0x3C3 JUMPI JUMPDEST PUSH2 0x3A6 JUMPI JUMPDEST POP DUP4 DUP9 MLOAD DUP1 SWAP3 DUP2 DUP13 DUP2 PUSH2 0x1A3 DUP14 PUSH4 0x95EA7B3 PUSH1 0xE0 SHL SWAP11 DUP12 DUP5 MSTORE DUP4 ADD SWAP2 SWAP1 PUSH1 0x20 PUSH1 0x40 DUP5 ADD SWAP4 PUSH20 0x364687AAF0A70C418FE5FF8E9746B254F319B33E DUP2 MSTORE ADD MSTORE JUMP JUMPDEST SUB SWAP3 GAS CALL DUP1 ISZERO PUSH2 0x399 JUMPI JUMPDEST PUSH2 0x37C JUMPI JUMPDEST POP PUSH20 0x364687AAF0A70C418FE5FF8E9746B254F319B33E DUP1 EXTCODESIZE ISZERO PUSH2 0x378 JUMPI DUP8 MLOAD PUSH4 0xDF791E5 PUSH1 0xE4 SHL DUP2 MSTORE PUSH1 0x1 PUSH1 0x1 PUSH1 0xA0 SHL SUB SWAP1 SWAP3 AND DUP3 DUP12 ADD SWAP1 DUP2 MSTORE PUSH20 0xBA50CD2A20F6DA35D788639E581BCA8D0B5D4D5F PUSH1 0x20 DUP3 ADD MSTORE PUSH1 0x40 DUP2 ADD DUP9 SWAP1 MSTORE DUP10 SWAP2 DUP4 SWAP2 DUP3 SWAP1 DUP5 SWAP1 DUP3 SWAP1 PUSH1 0x60 ADD SUB SWAP3 GAS CALL DUP1 ISZERO PUSH2 0x36B JUMPI JUMPDEST PUSH2 0x358 JUMPI JUMPDEST POP DUP6 MLOAD SWAP1 DUP2 MSTORE PUSH1 0x1 PUSH1 0x1 PUSH1 0xA0 SHL SUB DUP4 AND DUP9 DUP3 ADD SWAP1 DUP2 MSTORE PUSH1 0x20 DUP2 ADD DUP7 SWAP1 MSTORE DUP3 SWAP1 DUP3 SWAP1 DUP2 SWAP1 PUSH1 0x40 ADD SUB DUP2 DUP11 PUSH20 0xBA50CD2A20F6DA35D788639E581BCA8D0B5D4D5F GAS CALL DUP1 ISZERO PUSH2 0x34B JUMPI JUMPDEST PUSH2 0x31D JUMPI JUMPDEST POP POP DUP5 SLOAD SWAP2 AND SWAP2 SWAP1 PUSH1 0x1 PUSH1 0x1 PUSH1 0xA0 SHL SUB AND SWAP3 DUP3 EXTCODESIZE ISZERO PUSH2 0x319 JUMPI MLOAD PUSH4 0x617BA037 PUSH1 0xE0 SHL DUP2 MSTORE PUSH20 0xBA50CD2A20F6DA35D788639E581BCA8D0B5D4D5F SWAP6 DUP2 ADD SWAP6 DUP7 MSTORE PUSH1 0x20 DUP7 ADD SWAP2 SWAP1 SWAP2 MSTORE PUSH1 0x1 PUSH1 0x1 PUSH1 0xA0 SHL SUB SWAP1 SWAP3 AND PUSH1 0x40 DUP6 ADD MSTORE PUSH1 0x0 PUSH1 0x60 DUP6 ADD MSTORE SWAP1 SWAP3 DUP4 SWAP2 SWAP1 DUP3 SWAP1 DUP5 SWAP1 DUP3 SWAP1 PUSH1 0x80 ADD SUB SWAP3 GAS CALL DUP1 ISZERO PUSH2 0x30C JUMPI JUMPDEST PUSH2 0x2F6 JUMPI POP DUP1 RETURN JUMPDEST DUP1 PUSH2 0x303 PUSH2 0x309 SWAP3 PUSH2 0x4A6 JUMP JUMPDEST DUP1 PUSH2 0x45A JUMP JUMPDEST DUP1 RETURN JUMPDEST PUSH2 0x314 PUSH2 0xC3A JUMP JUMPDEST PUSH2 0x2EE JUMP JUMPDEST DUP5 DUP1 REVERT JUMPDEST DUP2 PUSH2 0x33C SWAP3 SWAP1 RETURNDATASIZE LT PUSH2 0x344 JUMPI JUMPDEST PUSH2 0x334 DUP2 DUP4 PUSH2 0x4C7 JUMP JUMPDEST DUP2 ADD SWAP1 PUSH2 0x10CA JUMP JUMPDEST POP CODESIZE DUP1 PUSH2 0x277 JUMP JUMPDEST POP RETURNDATASIZE PUSH2 0x32A JUMP JUMPDEST PUSH2 0x353 PUSH2 0xC3A JUMP JUMPDEST PUSH2 0x272 JUMP JUMPDEST DUP1 PUSH2 0x303 PUSH2 0x365 SWAP3 PUSH2 0x4A6 JUMP JUMPDEST CODESIZE PUSH2 0x22B JUMP JUMPDEST PUSH2 0x373 PUSH2 0xC3A JUMP JUMPDEST PUSH2 0x226 JUMP JUMPDEST DUP9 DUP1 REVERT JUMPDEST PUSH2 0x392 SWAP1 DUP5 RETURNDATASIZE DUP7 GT PUSH2 0x344 JUMPI PUSH2 0x334 DUP2 DUP4 PUSH2 0x4C7 JUMP JUMPDEST POP CODESIZE PUSH2 0x1B3 JUMP JUMPDEST PUSH2 0x3A1 PUSH2 0xC3A JUMP JUMPDEST PUSH2 0x1AE JUMP JUMPDEST PUSH2 0x3BC SWAP1 DUP6 RETURNDATASIZE DUP8 GT PUSH2 0x344 JUMPI PUSH2 0x334 DUP2 DUP4 PUSH2 0x4C7 JUMP JUMPDEST POP CODESIZE PUSH2 0x164 JUMP JUMPDEST PUSH2 0x3CB PUSH2 0xC3A JUMP JUMPDEST PUSH2 0x15F JUMP JUMPDEST POP DUP1 REVERT JUMPDEST PUSH1 0x4 CALLDATALOAD SWAP1 PUSH1 0x1 PUSH1 0x1 PUSH1 0xA0 SHL SUB DUP3 AND DUP3 SUB PUSH2 0x85 JUMPI JUMP JUMPDEST PUSH1 0x24 CALLDATALOAD SWAP1 PUSH1 0x1 PUSH1 0x1 PUSH1 0xA0 SHL SUB DUP3 AND DUP3 SUB PUSH2 0x85 JUMPI JUMP JUMPDEST PUSH1 0xC4 CALLDATALOAD SWAP1 PUSH1 0x1 PUSH1 0x1 PUSH1 0xA0 SHL SUB DUP3 AND DUP3 SUB PUSH2 0x85 JUMPI JUMP JUMPDEST PUSH2 0x104 CALLDATALOAD SWAP1 PUSH1 0x1 PUSH1 0x1 PUSH1 0xA0 SHL SUB DUP3 AND DUP3 SUB PUSH2 0x85 JUMPI JUMP JUMPDEST PUSH2 0x124 CALLDATALOAD SWAP1 PUSH1 0x1 PUSH1 0x1 PUSH1 0xA0 SHL SUB DUP3 AND DUP3 SUB PUSH2 0x85 JUMPI JUMP JUMPDEST PUSH1 0xA4 CALLDATALOAD SWAP1 PUSH1 0x1 PUSH1 0x1 PUSH1 0xA0 SHL SUB DUP3 AND DUP3 SUB PUSH2 0x85 JUMPI JUMP JUMPDEST PUSH1 0x0 SWAP2 SUB SLT PUSH2 0x85 JUMPI JUMP JUMPDEST POP CALLVALUE PUSH2 0x85 JUMPI PUSH1 0x0 CALLDATASIZE PUSH1 0x3 NOT ADD SLT PUSH2 0x85 JUMPI PUSH1 0x0 SLOAD PUSH1 0x40 MLOAD PUSH1 0x1 PUSH1 0x1 PUSH1 0xA0 SHL SUB SWAP1 SWAP2 AND DUP2 MSTORE PUSH1 0x20 SWAP1 RETURN JUMPDEST POP PUSH4 0x4E487B71 PUSH1 0xE0 SHL PUSH1 0x0 MSTORE PUSH1 0x41 PUSH1 0x4 MSTORE PUSH1 0x24 PUSH1 0x0 REVERT JUMPDEST PUSH8 0xFFFFFFFFFFFFFFFF DUP2 GT PUSH2 0x4BA JUMPI PUSH1 0x40 MSTORE JUMP JUMPDEST PUSH2 0x4C2 PUSH2 0x48F JUMP JUMPDEST PUSH1 0x40 MSTORE JUMP JUMPDEST SWAP1 PUSH1 0x1F DUP1 NOT SWAP2 ADD AND DUP2 ADD SWAP1 DUP2 LT PUSH8 0xFFFFFFFFFFFFFFFF DUP3 GT OR PUSH2 0x4BA JUMPI PUSH1 0x40 MSTORE JUMP JUMPDEST PUSH1 0x40 MLOAD SWAP1 PUSH1 0xA0 DUP3 ADD DUP3 DUP2 LT PUSH8 0xFFFFFFFFFFFFFFFF DUP3 GT OR PUSH2 0x4BA JUMPI PUSH1 0x40 MSTORE JUMP JUMPDEST SWAP1 DUP1 PUSH1 0x1F DUP4 ADD SLT ISZERO PUSH2 0x85 JUMPI DUP2 CALLDATALOAD SWAP1 PUSH8 0xFFFFFFFFFFFFFFFF DUP3 GT PUSH2 0x571 JUMPI JUMPDEST DUP2 PUSH1 0x5 SHL PUSH1 0x40 MLOAD SWAP4 PUSH1 0x20 SWAP4 PUSH2 0x53F DUP6 DUP5 ADD DUP8 PUSH2 0x4C7 JUMP JUMPDEST DUP6 MSTORE DUP4 DUP1 DUP7 ADD SWAP3 DUP3 ADD ADD SWAP3 DUP4 GT PUSH2 0x85 JUMPI DUP4 ADD SWAP1 JUMPDEST DUP3 DUP3 LT PUSH2 0x562 JUMPI POP POP POP POP SWAP1 JUMP JUMPDEST DUP2 CALLDATALOAD DUP2 MSTORE SWAP1 DUP4 ADD SWAP1 DUP4 ADD PUSH2 0x554 JUMP JUMPDEST PUSH2 0x579 PUSH2 0x48F JUMP JUMPDEST PUSH2 0x528 JUMP JUMPDEST DUP2 PUSH1 0x1F DUP3 ADD SLT ISZERO PUSH2 0x85 JUMPI DUP1 CALLDATALOAD SWAP1 PUSH8 0xFFFFFFFFFFFFFFFF DUP3 GT PUSH2 0x5D6 JUMPI JUMPDEST PUSH1 0x40 MLOAD SWAP3 PUSH2 0x5B4 PUSH1 0x1F DUP5 ADD PUSH1 0x1F NOT AND PUSH1 0x20 ADD DUP6 PUSH2 0x4C7 JUMP JUMPDEST DUP3 DUP5 MSTORE PUSH1 0x20 DUP4 DUP4 ADD ADD GT PUSH2 0x85 JUMPI DUP2 PUSH1 0x0 SWAP3 PUSH1 0x20 DUP1 SWAP4 ADD DUP4 DUP7 ADD CALLDATACOPY DUP4 ADD ADD MSTORE SWAP1 JUMP JUMPDEST PUSH2 0x5DE PUSH2 0x48F JUMP JUMPDEST PUSH2 0x59C JUMP JUMPDEST POP CALLVALUE PUSH2 0x85 JUMPI PUSH2 0x100 CALLDATASIZE PUSH1 0x3 NOT ADD SLT PUSH2 0x85 JUMPI PUSH2 0x5FE PUSH2 0x3D4 JUMP JUMPDEST PUSH8 0xFFFFFFFFFFFFFFFF SWAP1 PUSH1 0x24 CALLDATALOAD DUP3 DUP2 GT PUSH2 0x85 JUMPI PUSH2 0x620 SWAP1 CALLDATASIZE SWAP1 PUSH1 0x4 ADD PUSH2 0x509 JUMP JUMPDEST SWAP1 PUSH1 0x44 CALLDATALOAD DUP4 DUP2 GT PUSH2 0x85 JUMPI PUSH2 0x639 SWAP1 CALLDATASIZE SWAP1 PUSH1 0x4 ADD PUSH2 0x509 JUMP JUMPDEST SWAP2 PUSH1 0x64 CALLDATALOAD DUP5 DUP2 GT PUSH2 0x85 JUMPI PUSH2 0x652 SWAP1 CALLDATASIZE SWAP1 PUSH1 0x4 ADD PUSH2 0x509 JUMP JUMPDEST SWAP2 PUSH2 0x65B PUSH2 0x400 JUMP JUMPDEST SWAP3 PUSH1 0xE4 CALLDATALOAD SWAP6 DUP7 GT PUSH2 0x85 JUMPI PUSH2 0x677 PUSH2 0x685 SWAP7 CALLDATASIZE SWAP1 PUSH1 0x4 ADD PUSH2 0x57E JUMP JUMPDEST SWAP5 PUSH1 0xA4 CALLDATALOAD SWAP4 PUSH1 0x84 CALLDATALOAD SWAP4 PUSH2 0xFB1 JUMP JUMPDEST STOP JUMPDEST PUSH1 0x44 CALLDATALOAD SWAP1 PUSH4 0xFFFFFFFF DUP3 AND DUP3 SUB PUSH2 0x85 JUMPI JUMP JUMPDEST POP CALLVALUE PUSH2 0x85 JUMPI PUSH2 0x140 CALLDATASIZE PUSH1 0x3 NOT ADD SLT PUSH2 0x85 JUMPI PUSH2 0x6B5 PUSH2 0x3D4 JUMP JUMPDEST PUSH2 0x6BD PUSH2 0x687 JUMP JUMPDEST PUSH8 0xFFFFFFFFFFFFFFFF SWAP2 PUSH1 0x64 CALLDATALOAD DUP4 DUP2 GT PUSH2 0x85 JUMPI PUSH2 0x6DF SWAP1 CALLDATASIZE SWAP1 PUSH1 0x4 ADD PUSH2 0x509 JUMP JUMPDEST SWAP2 PUSH1 0x84 CALLDATALOAD DUP5 DUP2 GT PUSH2 0x85 JUMPI PUSH2 0x6F8 SWAP1 CALLDATASIZE SWAP1 PUSH1 0x4 ADD PUSH2 0x509 JUMP JUMPDEST SWAP2 PUSH1 0xA4 CALLDATALOAD DUP6 DUP2 GT PUSH2 0x85 JUMPI PUSH2 0x711 SWAP1 CALLDATASIZE SWAP1 PUSH1 0x4 ADD PUSH2 0x509 JUMP JUMPDEST PUSH2 0x719 PUSH2 0x416 JUMP JUMPDEST SWAP4 PUSH2 0x124 CALLDATALOAD SWAP7 DUP8 GT PUSH2 0x85 JUMPI PUSH2 0x736 PUSH2 0x685 SWAP8 CALLDATASIZE SWAP1 PUSH1 0x4 ADD PUSH2 0x57E JUMP JUMPDEST SWAP6 PUSH1 0xE4 CALLDATALOAD SWAP5 PUSH1 0xC4 CALLDATALOAD SWAP5 PUSH1 0x24 CALLDATALOAD SWAP1 PUSH2 0x1143 JUMP JUMPDEST POP CALLVALUE PUSH2 0x85 JUMPI PUSH1 0x0 CALLDATASIZE PUSH1 0x3 NOT ADD SLT PUSH2 0x85 JUMPI PUSH1 0x1 SLOAD PUSH1 0x40 MLOAD PUSH1 0x1 PUSH1 0x1 PUSH1 0xA0 SHL SUB SWAP1 SWAP2 AND DUP2 MSTORE PUSH1 0x20 SWAP1 RETURN JUMPDEST POP CALLVALUE PUSH2 0x85 JUMPI PUSH1 0x20 CALLDATASIZE PUSH1 0x3 NOT ADD SLT PUSH2 0x85 JUMPI PUSH1 0x4 CALLDATALOAD PUSH1 0x0 MSTORE PUSH1 0x2 PUSH1 0x20 MSTORE PUSH1 0x20 PUSH1 0xFF PUSH1 0x40 PUSH1 0x0 KECCAK256 SLOAD AND PUSH1 0x40 MLOAD SWAP1 ISZERO ISZERO DUP2 MSTORE RETURN JUMPDEST POP CALLVALUE PUSH2 0x85 JUMPI PUSH2 0x180 CALLDATASIZE PUSH1 0x3 NOT ADD SLT PUSH2 0x85 JUMPI PUSH2 0x7BF PUSH2 0x3D4 JUMP JUMPDEST PUSH2 0x7C7 PUSH2 0x687 JUMP JUMPDEST PUSH8 0xFFFFFFFFFFFFFFFF SWAP2 SWAP1 PUSH1 0x64 CALLDATALOAD DUP4 DUP2 GT PUSH2 0x85 JUMPI PUSH2 0x7EA SWAP1 CALLDATASIZE SWAP1 PUSH1 0x4 ADD PUSH2 0x509 JUMP JUMPDEST SWAP1 PUSH1 0x84 CALLDATALOAD DUP5 DUP2 GT PUSH2 0x85 JUMPI PUSH2 0x803 SWAP1 CALLDATASIZE SWAP1 PUSH1 0x4 ADD PUSH2 0x509 JUMP JUMPDEST SWAP3 PUSH1 0xA4 CALLDATALOAD DUP6 DUP2 GT PUSH2 0x85 JUMPI PUSH2 0x81C SWAP1 CALLDATASIZE SWAP1 PUSH1 0x4 ADD PUSH2 0x509 JUMP JUMPDEST SWAP2 PUSH2 0x825 PUSH2 0x416 JUMP JUMPDEST SWAP2 PUSH2 0x82E PUSH2 0x42D JUMP JUMPDEST SWAP4 PUSH2 0x164 CALLDATALOAD SWAP8 DUP9 GT PUSH2 0x85 JUMPI PUSH2 0x84B PUSH2 0x685 SWAP9 CALLDATASIZE SWAP1 PUSH1 0x4 ADD PUSH2 0x57E JUMP JUMPDEST SWAP7 PUSH2 0x144 CALLDATALOAD SWAP7 PUSH1 0xE4 CALLDATALOAD SWAP5 PUSH1 0xC4 CALLDATALOAD SWAP5 PUSH1 0x24 CALLDATALOAD SWAP1 PUSH2 0x13B7 JUMP JUMPDEST POP CALLVALUE PUSH2 0x85 JUMPI PUSH1 0xE0 CALLDATASIZE PUSH1 0x3 NOT ADD SLT PUSH2 0x85 JUMPI PUSH8 0xFFFFFFFFFFFFFFFF PUSH1 0x4 CALLDATALOAD DUP2 DUP2 GT PUSH2 0x85 JUMPI PUSH2 0x895 SWAP1 CALLDATASIZE SWAP1 PUSH1 0x4 ADD PUSH2 0x509 JUMP JUMPDEST SWAP1 PUSH1 0x24 CALLDATALOAD DUP2 DUP2 GT PUSH2 0x85 JUMPI PUSH2 0x8AE SWAP1 CALLDATASIZE SWAP1 PUSH1 0x4 ADD PUSH2 0x509 JUMP JUMPDEST PUSH1 0x44 CALLDATALOAD DUP3 DUP2 GT PUSH2 0x85 JUMPI PUSH2 0x8C6 SWAP1 CALLDATASIZE SWAP1 PUSH1 0x4 ADD PUSH2 0x509 JUMP JUMPDEST SWAP1 PUSH2 0x8CF PUSH2 0x444 JUMP JUMPDEST SWAP1 PUSH1 0xC4 CALLDATALOAD SWAP4 DUP5 GT PUSH2 0x85 JUMPI PUSH2 0x941 SWAP5 PUSH2 0x8EF PUSH2 0x8FD SWAP6 CALLDATASIZE SWAP1 PUSH1 0x4 ADD PUSH2 0x57E JUMP JUMPDEST SWAP4 PUSH1 0x84 CALLDATALOAD SWAP3 PUSH1 0x64 CALLDATALOAD SWAP3 PUSH2 0xC87 JUMP JUMPDEST PUSH1 0x40 MLOAD SWAP2 DUP3 SWAP2 DUP3 SWAP2 SWAP1 SWAP2 PUSH1 0x80 PUSH1 0xA0 DUP3 ADD SWAP4 DUP1 MLOAD DUP4 MSTORE PUSH1 0x20 DUP2 ADD MLOAD PUSH1 0x20 DUP5 ADD MSTORE PUSH1 0x40 DUP2 ADD MLOAD PUSH1 0x40 DUP5 ADD MSTORE PUSH1 0x60 DUP2 ADD MLOAD PUSH1 0x60 DUP5 ADD MSTORE DUP2 PUSH1 0x1 DUP1 PUSH1 0xA0 SHL SUB SWAP2 ADD MLOAD AND SWAP2 ADD MSTORE JUMP JUMPDEST SUB SWAP1 RETURN JUMPDEST SWAP2 DUP2 PUSH1 0x1F DUP5 ADD SLT ISZERO PUSH2 0x85 JUMPI DUP3 CALLDATALOAD SWAP2 PUSH8 0xFFFFFFFFFFFFFFFF DUP4 GT PUSH2 0x85 JUMPI PUSH1 0x20 DUP4 DUP2 DUP7 ADD SWAP6 ADD ADD GT PUSH2 0x85 JUMPI JUMP JUMPDEST POP CALLVALUE PUSH2 0x85 JUMPI PUSH1 0x3 NOT PUSH1 0x40 CALLDATASIZE DUP3 ADD SLT PUSH2 0x85 JUMPI PUSH8 0xFFFFFFFFFFFFFFFF PUSH1 0x4 CALLDATALOAD DUP2 DUP2 GT PUSH2 0x85 JUMPI PUSH2 0x9A7 SWAP1 CALLDATASIZE SWAP1 PUSH1 0x4 ADD PUSH2 0x945 JUMP JUMPDEST PUSH1 0x24 SWAP3 SWAP2 SWAP3 CALLDATALOAD SWAP2 DUP3 GT PUSH2 0x85 JUMPI PUSH1 0x20 SWAP3 PUSH1 0x0 PUSH2 0xA11 SWAP3 PUSH2 0x9CE PUSH2 0xA02 SWAP6 CALLDATASIZE SWAP1 PUSH1 0x4 ADD PUSH2 0x945 JUMP JUMPDEST SWAP5 SWAP1 SWAP8 PUSH1 0x1 DUP1 PUSH1 0xA0 SHL SUB PUSH1 0x5 SLOAD AND SWAP6 PUSH1 0x40 MLOAD SWAP10 DUP11 SWAP9 DUP10 SWAP8 DUP9 SWAP7 PUSH4 0xAFD9FA5 PUSH1 0xE3 SHL DUP9 MSTORE PUSH1 0x40 PUSH1 0x4 DUP10 ADD MSTORE PUSH1 0x44 DUP9 ADD SWAP2 PUSH2 0x1396 JUMP JUMPDEST SWAP3 DUP6 DUP5 SUB ADD PUSH1 0x24 DUP7 ADD MSTORE PUSH2 0x1396 JUMP JUMPDEST SUB SWAP3 GAS CALL DUP1 ISZERO PUSH2 0xA39 JUMPI JUMPDEST PUSH2 0xA22 JUMPI STOP JUMPDEST PUSH2 0x685 SWAP1 PUSH1 0x20 RETURNDATASIZE DUP2 GT PUSH2 0x344 JUMPI PUSH2 0x334 DUP2 DUP4 PUSH2 0x4C7 JUMP JUMPDEST PUSH2 0xA41 PUSH2 0xC3A JUMP JUMPDEST PUSH2 0xA1C JUMP JUMPDEST PUSH1 0x40 MLOAD SWAP1 PUSH1 0xA0 DUP3 ADD DUP3 DUP2 LT PUSH8 0xFFFFFFFFFFFFFFFF DUP3 GT OR PUSH2 0xA83 JUMPI JUMPDEST PUSH1 0x40 MSTORE PUSH1 0x0 PUSH1 0x80 DUP4 DUP3 DUP2 MSTORE DUP3 PUSH1 0x20 DUP3 ADD MSTORE DUP3 PUSH1 0x40 DUP3 ADD MSTORE DUP3 PUSH1 0x60 DUP3 ADD MSTORE ADD MSTORE JUMP JUMPDEST PUSH2 0xA8B PUSH2 0x48F JUMP JUMPDEST PUSH2 0xA62 JUMP JUMPDEST ISZERO PUSH2 0xA97 JUMPI JUMP JUMPDEST PUSH1 0x40 MLOAD PUSH3 0x461BCD PUSH1 0xE5 SHL DUP2 MSTORE PUSH1 0x20 PUSH1 0x4 DUP3 ADD MSTORE PUSH1 0x14 PUSH1 0x24 DUP3 ADD MSTORE PUSH20 0x1CDA59DB985D1D5C99481A5CC8195E1C1A5C9959 PUSH1 0x62 SHL PUSH1 0x44 DUP3 ADD MSTORE PUSH1 0x64 SWAP1 REVERT JUMPDEST POP PUSH4 0x4E487B71 PUSH1 0xE0 SHL PUSH1 0x0 MSTORE PUSH1 0x11 PUSH1 0x4 MSTORE PUSH1 0x24 PUSH1 0x0 REVERT JUMPDEST SWAP1 PUSH1 0x1 DUP3 ADD DUP1 SWAP3 GT PUSH2 0xAF8 JUMPI JUMP JUMPDEST PUSH2 0xB00 PUSH2 0xAD3 JUMP JUMPDEST JUMP JUMPDEST DUP1 MLOAD DUP3 LT ISZERO PUSH2 0xB16 JUMPI PUSH1 0x20 SWAP2 PUSH1 0x5 SHL ADD ADD SWAP1 JUMP JUMPDEST PUSH4 0x4E487B71 PUSH1 0xE0 SHL PUSH1 0x0 MSTORE PUSH1 0x32 PUSH1 0x4 MSTORE PUSH1 0x24 PUSH1 0x0 REVERT JUMPDEST ISZERO PUSH2 0xB33 JUMPI JUMP JUMPDEST PUSH1 0x40 MLOAD PUSH3 0x461BCD PUSH1 0xE5 SHL DUP2 MSTORE PUSH1 0x20 PUSH1 0x4 DUP3 ADD MSTORE PUSH1 0x1B PUSH1 0x24 DUP3 ADD MSTORE PUSH32 0x6E6F7420617574686F72697A656420736F7572636520636861696E0000000000 PUSH1 0x44 DUP3 ADD MSTORE PUSH1 0x64 SWAP1 REVERT JUMPDEST ISZERO PUSH2 0xB7F JUMPI JUMP JUMPDEST PUSH1 0x40 MLOAD PUSH3 0x461BCD PUSH1 0xE5 SHL DUP2 MSTORE PUSH1 0x20 PUSH1 0x4 DUP3 ADD MSTORE PUSH1 0xB PUSH1 0x24 DUP3 ADD MSTORE PUSH11 0x6E6F6E6365207573656421 PUSH1 0xA8 SHL PUSH1 0x44 DUP3 ADD MSTORE PUSH1 0x64 SWAP1 REVERT JUMPDEST SWAP1 DUP2 MLOAD DUP1 DUP3 MSTORE PUSH1 0x20 DUP1 DUP1 SWAP4 ADD SWAP4 ADD SWAP2 PUSH1 0x0 JUMPDEST DUP3 DUP2 LT PUSH2 0xBD2 JUMPI POP POP POP POP SWAP1 JUMP JUMPDEST DUP4 MLOAD DUP6 MSTORE SWAP4 DUP2 ADD SWAP4 SWAP3 DUP2 ADD SWAP3 PUSH1 0x1 ADD PUSH2 0xBC4 JUMP JUMPDEST SWAP5 SWAP2 SWAP3 PUSH2 0xC15 PUSH1 0xA0 SWAP6 SWAP9 SWAP8 SWAP5 PUSH2 0xC07 PUSH2 0xC23 SWAP5 PUSH1 0xC0 DUP11 MSTORE PUSH1 0xC0 DUP11 ADD SWAP1 PUSH2 0xBB2 JUMP JUMPDEST SWAP1 DUP9 DUP3 SUB PUSH1 0x20 DUP11 ADD MSTORE PUSH2 0xBB2 JUMP JUMPDEST SWAP1 DUP7 DUP3 SUB PUSH1 0x40 DUP9 ADD MSTORE PUSH2 0xBB2 JUMP JUMPDEST SWAP6 PUSH1 0x60 DUP6 ADD MSTORE PUSH1 0x80 DUP5 ADD MSTORE PUSH1 0x1 DUP1 DUP4 SHL SUB AND SWAP2 ADD MSTORE JUMP JUMPDEST POP PUSH1 0x40 MLOAD RETURNDATASIZE PUSH1 0x0 DUP3 RETURNDATACOPY RETURNDATASIZE SWAP1 REVERT JUMPDEST ISZERO PUSH2 0xC4E JUMPI JUMP JUMPDEST PUSH1 0x40 MLOAD PUSH3 0x461BCD PUSH1 0xE5 SHL DUP2 MSTORE PUSH1 0x20 PUSH1 0x4 DUP3 ADD MSTORE PUSH1 0x11 PUSH1 0x24 DUP3 ADD MSTORE PUSH17 0x496E76616C6964207369676E6174757265 PUSH1 0x78 SHL PUSH1 0x44 DUP3 ADD MSTORE PUSH1 0x64 SWAP1 REVERT JUMPDEST SWAP1 SWAP5 SWAP4 SWAP3 PUSH2 0xC93 PUSH2 0xA46 JUMP JUMPDEST POP PUSH2 0xC9F DUP2 TIMESTAMP LT PUSH2 0xA90 JUMP JUMPDEST PUSH1 0x0 SWAP7 DUP8 DUP1 JUMPDEST DUP5 MLOAD DUP2 LT ISZERO PUSH2 0xECA JUMPI CHAINID PUSH2 0xCB9 DUP3 DUP8 PUSH2 0xB02 JUMP JUMPDEST MLOAD EQ PUSH2 0xCCD JUMPI PUSH2 0xCC8 SWAP1 PUSH2 0xAEA JUMP JUMPDEST PUSH2 0xCA5 JUMP JUMPDEST DUP9 SWAP10 POP DUP7 SWAP4 SWAP2 POP DUP6 SWAP3 DUP6 DUP10 SWAP3 SWAP6 DUP7 SWAP5 DUP6 DUP1 SWAP5 PUSH1 0x1 PUSH2 0xEBA SWAP16 PUSH2 0xE8E SWAP13 PUSH2 0xE87 SWAP12 PUSH2 0xDA4 PUSH2 0xE80 SWAP12 PUSH1 0x20 SWAP10 PUSH1 0x0 SWAP10 PUSH2 0xD67 PUSH2 0xE36 SWAP11 PUSH2 0xD0D PUSH2 0xE10 SWAP11 PUSH2 0xB2C JUMP JUMPDEST PUSH2 0xD44 PUSH2 0xD3F PUSH2 0xD3B PUSH2 0xD34 PUSH2 0xD23 DUP6 DUP13 PUSH2 0xB02 JUMP JUMPDEST MLOAD PUSH1 0x0 MSTORE PUSH1 0x2 PUSH1 0x20 MSTORE PUSH1 0x40 PUSH1 0x0 KECCAK256 SWAP1 JUMP JUMPDEST SLOAD PUSH1 0xFF AND SWAP1 JUMP JUMPDEST ISZERO SWAP1 JUMP JUMPDEST PUSH2 0xB78 JUMP JUMPDEST PUSH2 0xD61 PUSH2 0xD54 PUSH2 0xD23 DUP4 DUP11 PUSH2 0xB02 JUMP JUMPDEST DUP1 SLOAD PUSH1 0xFF NOT AND PUSH1 0x1 OR SWAP1 SSTORE JUMP JUMPDEST DUP7 PUSH2 0xB02 JUMP JUMPDEST MLOAD SWAP5 PUSH1 0x40 MLOAD SWAP8 DUP9 SWAP7 PUSH4 0xFFFFFFFF CHAINID AND PUSH32 0x4D2424583F69260833C556539A5B832BBD7B4173F59D25210B776BEC668373D2 DUP16 DUP1 LOG3 DUP14 DUP8 ADD SWAP8 DUP9 PUSH2 0xBE6 JUMP JUMPDEST SUB SWAP2 PUSH2 0xDB8 PUSH1 0x1F NOT SWAP4 DUP5 DUP2 ADD DUP4 MSTORE DUP3 PUSH2 0x4C7 JUMP JUMPDEST MLOAD SWAP1 KECCAK256 SWAP1 PUSH2 0xE07 PUSH1 0x40 MLOAD SWAP2 DUP3 PUSH2 0xDFB DUP11 DUP3 ADD SWAP6 DUP7 PUSH1 0x3C SWAP2 PUSH32 0x19457468657265756D205369676E6564204D6573736167653A0A333200000000 DUP3 MSTORE PUSH1 0x1C DUP3 ADD MSTORE ADD SWAP1 JUMP JUMPDEST SUB SWAP1 DUP2 ADD DUP4 MSTORE DUP3 PUSH2 0x4C7 JUMP JUMPDEST MLOAD SWAP1 KECCAK256 SWAP2 PUSH2 0xF01 JUMP JUMPDEST PUSH1 0x40 DUP1 MLOAD SWAP5 DUP6 MSTORE PUSH1 0xFF SWAP1 SWAP2 AND PUSH1 0x20 DUP6 ADD MSTORE DUP4 ADD SWAP2 SWAP1 SWAP2 MSTORE PUSH1 0x60 DUP3 ADD MSTORE SWAP1 DUP2 SWAP1 PUSH1 0x80 DUP3 ADD SWAP1 JUMP JUMPDEST DUP4 DUP1 MSTORE SUB SWAP1 PUSH1 0x1 GAS STATICCALL ISZERO PUSH2 0xEBD JUMPI JUMPDEST PUSH1 0x0 DUP1 MLOAD SWAP1 SLOAD PUSH2 0xE7B SWAP2 SWAP1 PUSH2 0xE6A SWAP1 PUSH1 0x1 PUSH1 0x1 PUSH1 0xA0 SHL SUB AND JUMPDEST PUSH1 0x1 PUSH1 0x1 PUSH1 0xA0 SHL SUB AND SWAP1 JUMP JUMPDEST PUSH1 0x1 PUSH1 0x1 PUSH1 0xA0 SHL SUB SWAP1 SWAP2 AND EQ PUSH2 0xC47 JUMP JUMPDEST PUSH2 0xB02 JUMP JUMPDEST MLOAD SWAP9 PUSH2 0xB02 JUMP JUMPDEST MLOAD SWAP3 PUSH2 0xB02 JUMP JUMPDEST MLOAD SWAP1 PUSH2 0xE98 PUSH2 0x4E9 JUMP JUMPDEST SWAP6 DUP7 MSTORE PUSH1 0x20 DUP7 ADD MSTORE PUSH1 0x40 DUP6 ADD MSTORE PUSH1 0x60 DUP5 ADD MSTORE PUSH1 0x1 PUSH1 0x1 PUSH1 0xA0 SHL SUB AND PUSH1 0x80 DUP4 ADD MSTORE JUMP JUMPDEST SWAP1 JUMP JUMPDEST PUSH2 0xEC5 PUSH2 0xC3A JUMP JUMPDEST PUSH2 0xE45 JUMP JUMPDEST POP PUSH2 0xE80 DUP2 DUP6 PUSH1 0x20 PUSH1 0x0 PUSH2 0xE36 PUSH2 0xE87 SWAP8 DUP15 SWAP16 PUSH2 0xEBA SWAP16 DUP16 SWAP13 DUP16 DUP16 SWAP1 PUSH2 0xE8E SWAP16 DUP12 SWAP16 SWAP2 PUSH2 0xDA4 SWAP3 PUSH2 0xD67 DUP15 PUSH2 0xD0D PUSH2 0xE10 SWAP11 PUSH2 0xB2C JUMP JUMPDEST PUSH1 0x41 DUP2 MLOAD SUB PUSH2 0xF20 JUMPI PUSH1 0x20 DUP2 ADD MLOAD SWAP2 PUSH1 0x60 PUSH1 0x40 DUP4 ADD MLOAD SWAP3 ADD MLOAD PUSH1 0x0 BYTE SWAP1 JUMP JUMPDEST PUSH1 0x40 MLOAD PUSH3 0x461BCD PUSH1 0xE5 SHL DUP2 MSTORE PUSH1 0x20 PUSH1 0x4 DUP3 ADD MSTORE PUSH1 0x18 PUSH1 0x24 DUP3 ADD MSTORE PUSH32 0x696E76616C6964207369676E6174757265206C656E6774680000000000000000 PUSH1 0x44 DUP3 ADD MSTORE PUSH1 0x64 SWAP1 REVERT JUMPDEST ISZERO PUSH2 0xF6C JUMPI JUMP JUMPDEST PUSH1 0x40 MLOAD PUSH3 0x461BCD PUSH1 0xE5 SHL DUP2 MSTORE PUSH1 0x20 PUSH1 0x4 DUP3 ADD MSTORE PUSH1 0x19 PUSH1 0x24 DUP3 ADD MSTORE PUSH32 0x596F7520617265206E6F7420746865206F70657261746F722100000000000000 PUSH1 0x44 DUP3 ADD MSTORE PUSH1 0x64 SWAP1 REVERT JUMPDEST SWAP1 SWAP2 PUSH2 0x1023 PUSH1 0x80 DUP8 PUSH2 0x1015 PUSH2 0x100D PUSH32 0x2C4F4F63CA317B393C3B566783FF16738E546A073789D71ACFE23FC03BC9184C SWAP13 PUSH1 0x0 SWAP13 PUSH2 0x102B SWAP13 PUSH2 0x1069 SWAP13 PUSH1 0x20 SWAP13 DUP11 PUSH2 0x1008 SWAP14 PUSH1 0x1 DUP1 PUSH1 0xA0 SHL SUB SWAP15 DUP16 PUSH1 0x1 SLOAD AND CALLER EQ PUSH2 0xF65 JUMP JUMPDEST PUSH2 0xC87 JUMP JUMPDEST SWAP2 CHAINID EQ PUSH2 0x10C3 JUMP JUMPDEST ADD MLOAD PUSH1 0x1 PUSH1 0x1 PUSH1 0xA0 SHL SUB AND SWAP1 JUMP JUMPDEST SWAP6 DUP7 SWAP2 PUSH2 0x10E2 JUMP JUMPDEST DUP8 SLOAD PUSH1 0x40 MLOAD PUSH4 0x23B872DD PUSH1 0xE0 SHL DUP2 MSTORE PUSH1 0x1 PUSH1 0x1 PUSH1 0xA0 SHL SUB SWAP2 DUP3 AND PUSH1 0x4 DUP3 ADD MSTORE SWAP3 AND PUSH1 0x24 DUP4 ADD MSTORE PUSH1 0x44 DUP3 ADD DUP2 SWAP1 MSTORE SWAP7 SWAP1 SWAP5 DUP6 SWAP4 DUP5 SWAP3 SWAP2 DUP4 SWAP1 PUSH1 0x64 DUP3 ADD SWAP1 JUMP JUMPDEST SUB SWAP4 AND GAS CALL DUP1 ISZERO PUSH2 0x10B6 JUMPI JUMPDEST PUSH2 0x1098 JUMPI JUMPDEST POP PUSH1 0x40 DUP1 MLOAD PUSH1 0x1 PUSH1 0x1 PUSH1 0xA0 SHL SUB SWAP3 SWAP1 SWAP3 AND DUP3 MSTORE PUSH1 0x20 DUP3 ADD SWAP3 SWAP1 SWAP3 MSTORE LOG1 JUMP JUMPDEST PUSH2 0x10AF SWAP1 PUSH1 0x20 RETURNDATASIZE DUP2 GT PUSH2 0x344 JUMPI PUSH2 0x334 DUP2 DUP4 PUSH2 0x4C7 JUMP JUMPDEST POP CODESIZE PUSH2 0x107A JUMP JUMPDEST PUSH2 0x10BE PUSH2 0xC3A JUMP JUMPDEST PUSH2 0x1075 JUMP JUMPDEST ISZERO PUSH2 0x85 JUMPI JUMP JUMPDEST SWAP1 DUP2 PUSH1 0x20 SWAP2 SUB SLT PUSH2 0x85 JUMPI MLOAD DUP1 ISZERO ISZERO DUP2 SUB PUSH2 0x85 JUMPI SWAP1 JUMP JUMPDEST PUSH1 0x0 SWAP1 DUP1 MLOAD DUP3 SWAP1 JUMPDEST DUP1 DUP3 LT PUSH2 0x10F7 JUMPI POP POP POP SWAP1 JUMP JUMPDEST SWAP1 SWAP2 SWAP4 SWAP3 PUSH1 0x1 SWAP1 PUSH2 0x1108 DUP5 DUP8 PUSH2 0xB02 JUMP JUMPDEST MLOAD DUP2 ADD DUP1 SWAP2 GT PUSH2 0x1136 JUMPI JUMPDEST SWAP3 PUSH1 0x0 NOT DUP2 EQ PUSH2 0x1129 JUMPI JUMPDEST ADD SWAP1 SWAP4 SWAP2 SWAP3 SWAP4 PUSH2 0x10EA JUMP JUMPDEST PUSH2 0x1131 PUSH2 0xAD3 JUMP JUMPDEST PUSH2 0x111E JUMP JUMPDEST PUSH2 0x113E PUSH2 0xAD3 JUMP JUMPDEST PUSH2 0x1113 JUMP JUMPDEST SWAP6 SWAP1 SWAP8 SWAP3 SWAP10 SWAP9 SWAP4 SWAP5 PUSH2 0x1169 SWAP6 SWAP8 SWAP3 SWAP8 PUSH1 0x1 DUP1 PUSH1 0xA0 SHL SUB SWAP12 PUSH2 0x1008 DUP14 PUSH1 0x1 SLOAD AND CALLER EQ PUSH2 0xF65 JUMP JUMPDEST SWAP3 PUSH1 0x20 SWAP3 PUSH2 0x1196 PUSH2 0x118C PUSH1 0x60 DUP7 DUP9 ADD MLOAD SWAP8 ADD MLOAD PUSH1 0x0 MSTORE PUSH1 0x3 PUSH1 0x20 MSTORE PUSH1 0x40 PUSH1 0x0 KECCAK256 SWAP1 JUMP JUMPDEST SLOAD PUSH4 0xFFFFFFFF AND SWAP1 JUMP JUMPDEST SWAP1 PUSH1 0x0 SWAP5 PUSH2 0x1255 DUP2 DUP9 PUSH2 0x11B5 PUSH2 0xE5E PUSH2 0xE5E DUP12 SLOAD PUSH1 0x1 DUP1 PUSH1 0xA0 SHL SUB AND SWAP1 JUMP JUMPDEST SWAP12 DUP9 AND PUSH2 0x1204 DUP4 DUP4 DUP13 PUSH2 0x11CF PUSH1 0x4 SLOAD PUSH1 0x1 DUP1 PUSH1 0xA0 SHL SUB AND SWAP1 JUMP JUMPDEST PUSH1 0x40 MLOAD PUSH4 0x95EA7B3 PUSH1 0xE0 SHL DUP2 MSTORE PUSH1 0x1 PUSH1 0x1 PUSH1 0xA0 SHL SUB SWAP1 SWAP2 AND PUSH1 0x4 DUP3 ADD MSTORE PUSH1 0x24 DUP2 ADD SWAP3 SWAP1 SWAP3 MSTORE SWAP1 SWAP3 DUP4 SWAP2 SWAP1 DUP3 SWAP1 DUP2 SWAP1 PUSH1 0x44 DUP3 ADD SWAP1 JUMP JUMPDEST SUB SWAP2 DUP7 GAS CALL DUP1 ISZERO PUSH2 0x1389 JUMPI JUMPDEST PUSH2 0x136C JUMPI JUMPDEST POP DUP10 SLOAD PUSH1 0x40 MLOAD PUSH4 0x23B872DD PUSH1 0xE0 SHL DUP2 MSTORE PUSH1 0x1 PUSH1 0x1 PUSH1 0xA0 SHL SUB SWAP1 SWAP2 AND PUSH1 0x4 DUP3 ADD MSTORE ADDRESS PUSH1 0x24 DUP3 ADD MSTORE PUSH1 0x44 DUP2 ADD SWAP3 SWAP1 SWAP3 MSTORE SWAP1 SWAP3 DUP4 SWAP2 SWAP1 DUP3 SWAP1 DUP12 SWAP1 DUP3 SWAP1 PUSH1 0x64 DUP3 ADD SWAP1 JUMP JUMPDEST SUB SWAP3 GAS CALL DUP1 ISZERO PUSH2 0x135F JUMPI JUMPDEST PUSH2 0x1341 JUMPI JUMPDEST POP POP PUSH1 0x4 SLOAD PUSH2 0x127E SWAP1 PUSH2 0xE5E SWAP1 PUSH1 0x1 PUSH1 0x1 PUSH1 0xA0 SHL SUB AND DUP2 JUMP JUMPDEST SWAP3 DUP4 EXTCODESIZE ISZERO PUSH2 0x133D JUMPI PUSH1 0x40 MLOAD PUSH4 0x47012877 PUSH1 0xE1 SHL DUP2 MSTORE PUSH1 0x4 DUP2 ADD DUP9 SWAP1 MSTORE PUSH4 0xFFFFFFFF SWAP4 DUP5 AND PUSH1 0x24 DUP3 ADD MSTORE PUSH1 0x44 DUP2 ADD SWAP10 SWAP1 SWAP10 MSTORE PUSH1 0x1 PUSH1 0x1 PUSH1 0xA0 SHL SUB SWAP1 SWAP5 AND PUSH1 0x64 DUP10 ADD MSTORE PUSH1 0x0 PUSH1 0x84 DUP10 ADD MSTORE PUSH1 0xA4 DUP9 ADD SWAP4 SWAP1 SWAP4 MSTORE SWAP1 SWAP2 AND PUSH1 0xC4 DUP7 ADD MSTORE SWAP3 SWAP4 SWAP2 SWAP3 PUSH32 0xEF170FF2108A9A34FFAE60C98D6E9EFF09D2F464437449BB09DD4231CED1CF58 SWAP3 SWAP1 DUP3 SWAP1 DUP3 SWAP1 DUP2 DUP4 DUP2 PUSH1 0xE4 DUP2 ADD SUB SWAP3 GAS CALL DUP1 ISZERO PUSH2 0x1330 JUMPI JUMPDEST PUSH2 0x131D JUMPI JUMPDEST POP DUP1 LOG2 JUMP JUMPDEST DUP1 PUSH2 0x303 PUSH2 0x132A SWAP3 PUSH2 0x4A6 JUMP JUMPDEST CODESIZE PUSH2 0x1318 JUMP JUMPDEST PUSH2 0x1338 PUSH2 0xC3A JUMP JUMPDEST PUSH2 0x1313 JUMP JUMPDEST DUP6 DUP1 REVERT JUMPDEST DUP2 PUSH2 0x1357 SWAP3 SWAP1 RETURNDATASIZE LT PUSH2 0x344 JUMPI PUSH2 0x334 DUP2 DUP4 PUSH2 0x4C7 JUMP JUMPDEST POP CODESIZE DUP1 PUSH2 0x1265 JUMP JUMPDEST PUSH2 0x1367 PUSH2 0xC3A JUMP JUMPDEST PUSH2 0x1260 JUMP JUMPDEST PUSH2 0x1382 SWAP1 DUP5 RETURNDATASIZE DUP7 GT PUSH2 0x344 JUMPI PUSH2 0x334 DUP2 DUP4 PUSH2 0x4C7 JUMP JUMPDEST POP CODESIZE PUSH2 0x1215 JUMP JUMPDEST PUSH2 0x1391 PUSH2 0xC3A JUMP JUMPDEST PUSH2 0x1210 JUMP JUMPDEST SWAP1 DUP1 PUSH1 0x20 SWAP4 SWAP3 DUP2 DUP5 MSTORE DUP5 DUP5 ADD CALLDATACOPY PUSH1 0x0 DUP3 DUP3 ADD DUP5 ADD MSTORE PUSH1 0x1F ADD PUSH1 0x1F NOT AND ADD ADD SWAP1 JUMP JUMPDEST SWAP8 SWAP3 SWAP6 SWAP1 SWAP7 SWAP2 SWAP10 SWAP9 SWAP12 SWAP11 SWAP4 SWAP5 PUSH2 0x13DE SWAP6 PUSH1 0x1 DUP1 PUSH1 0xA0 SHL SUB SWAP8 PUSH2 0x1008 DUP10 PUSH1 0x1 SLOAD AND CALLER EQ PUSH2 0xF65 JUMP JUMPDEST SWAP5 PUSH1 0x20 PUSH2 0x1400 PUSH2 0x118C PUSH1 0x60 DUP4 DUP11 ADD MLOAD SWAP10 ADD MLOAD PUSH1 0x0 MSTORE PUSH1 0x3 PUSH1 0x20 MSTORE PUSH1 0x40 PUSH1 0x0 KECCAK256 SWAP1 JUMP JUMPDEST SWAP3 DUP2 DUP9 PUSH1 0x0 SWAP9 PUSH2 0x141C PUSH2 0xE5E PUSH2 0xE5E DUP13 SLOAD PUSH1 0x1 DUP1 PUSH1 0xA0 SHL SUB AND SWAP1 JUMP JUMPDEST SWAP13 DUP2 PUSH2 0x1442 JUMPI JUMPDEST POP POP PUSH2 0x1255 SWAP3 DUP9 AND PUSH2 0x1204 DUP4 DUP4 DUP13 PUSH2 0x11CF PUSH1 0x4 SLOAD PUSH1 0x1 DUP1 PUSH1 0xA0 SHL SUB AND SWAP1 JUMP JUMPDEST SWAP1 SWAP3 POP DUP4 SWAP2 POP AND DUP1 EXTCODESIZE ISZERO PUSH2 0x378 JUMPI PUSH1 0x40 MLOAD PUSH4 0x1A4CA37B PUSH1 0xE2 SHL DUP2 MSTORE PUSH20 0xBA50CD2A20F6DA35D788639E581BCA8D0B5D4D5F PUSH1 0x4 DUP3 ADD MSTORE PUSH1 0x24 DUP2 ADD DUP4 SWAP1 MSTORE ADDRESS PUSH1 0x44 DUP3 ADD MSTORE SWAP1 DUP10 SWAP1 DUP3 SWAP1 PUSH1 0x64 SWAP1 DUP3 SWAP1 DUP5 SWAP1 GAS CALL DUP1 ISZERO PUSH2 0x1555 JUMPI JUMPDEST PUSH2 0x1542 JUMPI JUMPDEST POP PUSH20 0x364687AAF0A70C418FE5FF8E9746B254F319B33E DUP1 EXTCODESIZE ISZERO PUSH2 0x378 JUMPI PUSH1 0x40 MLOAD PUSH4 0xDF791E5 PUSH1 0xE4 SHL DUP2 MSTORE PUSH20 0xBA50CD2A20F6DA35D788639E581BCA8D0B5D4D5F PUSH1 0x4 DUP3 ADD MSTORE PUSH1 0x1 PUSH1 0x1 PUSH1 0xA0 SHL SUB DUP10 AND PUSH1 0x24 DUP3 ADD MSTORE PUSH1 0x44 DUP2 ADD SWAP3 SWAP1 SWAP3 MSTORE PUSH2 0x1255 SWAP3 DUP5 SWAP3 DUP12 SWAP3 DUP12 SWAP1 DUP3 SWAP1 PUSH1 0x64 SWAP1 DUP3 SWAP1 DUP5 SWAP1 GAS CALL DUP1 ISZERO PUSH2 0x1535 JUMPI JUMPDEST PUSH2 0x1522 JUMPI JUMPDEST DUP2 SWAP5 POP PUSH2 0x1423 JUMP JUMPDEST DUP1 PUSH2 0x303 PUSH2 0x152F SWAP3 PUSH2 0x4A6 JUMP JUMPDEST CODESIZE PUSH2 0x151A JUMP JUMPDEST PUSH2 0x153D PUSH2 0xC3A JUMP JUMPDEST PUSH2 0x1515 JUMP JUMPDEST DUP1 PUSH2 0x303 PUSH2 0x154F SWAP3 PUSH2 0x4A6 JUMP JUMPDEST CODESIZE PUSH2 0x149E JUMP JUMPDEST PUSH2 0x155D PUSH2 0xC3A JUMP JUMPDEST PUSH2 0x1499 JUMP INVALID LOG2 PUSH5 0x6970667358 0x22 SLT KECCAK256 SLOAD 0xC2 STATICCALL MSTORE SWAP12 0x5D 0xD3 0x2A CALLDATASIZE PUSH7 0xE7845177378BB 0xC4 0xE4 0xE4 0xD 0xB9 SWAP13 0xE8 XOR 0x4D CREATE2 0x29 0xD8 0xDF 0xBE 0xEE PUSH5 0x736F6C6343 STOP ADDMOD GT STOP CALLER "
        },
        "methodIdentifiers": {
          "depositToAAVE(address,address,uint256)": "017bf6bb",
          "operator()": "570ca735",
          "proxyDepositForBurn(address,uint256,uint32,uint256[],uint256[],uint256[],uint256,uint256,address,bytes)": "4b8c3676",
          "proxyDepositForBurnV2(address,uint256,uint32,uint256[],uint256[],uint256[],uint256,uint256,address,address,uint256,bytes)": "6fe5c1c2",
          "proxyReceiveMessage(bytes,bytes)": "d56dc8df",
          "proxyTransfer(address,uint256[],uint256[],uint256[],uint256,uint256,address,bytes)": "48eef5b6",
          "signatureVerifier(uint256[],uint256[],uint256[],uint256,uint256,address,bytes)": "bf37e8c6",
          "signer()": "238ac933",
          "usedNonces(uint256)": "6717e41c"
        }
      }
    }
  }
}