{
  "contracts/JustPay.sol": {
    "Swap": {
      "abi": [
        {
          "inputs": [],
          "stateMutability": "nonpayable",
          "type": "constructor"
        },
        {
          "inputs": [],
          "name": "aaveTestUSDC",
          "outputs": [
            {
              "internalType": "address",
              "name": "",
              "type": "address"
            }
          ],
          "stateMutability": "view",
          "type": "function"
        },
        {
          "inputs": [],
          "name": "circleTestUSDC",
          "outputs": [
            {
              "internalType": "address",
              "name": "",
              "type": "address"
            }
          ],
          "stateMutability": "view",
          "type": "function"
        },
        {
          "inputs": [],
          "name": "signer",
          "outputs": [
            {
              "internalType": "address",
              "name": "",
              "type": "address"
            }
          ],
          "stateMutability": "view",
          "type": "function"
        },
        {
          "inputs": [
            {
              "internalType": "address",
              "name": "tokenIn",
              "type": "address"
            },
            {
              "internalType": "address",
              "name": "tokenOut",
              "type": "address"
            },
            {
              "internalType": "uint256",
              "name": "amount",
              "type": "uint256"
            }
          ],
          "name": "swap",
          "outputs": [],
          "stateMutability": "nonpayable",
          "type": "function"
        },
        {
          "inputs": [
            {
              "internalType": "address",
              "name": "token",
              "type": "address"
            },
            {
              "internalType": "uint256",
              "name": "amount",
              "type": "uint256"
            }
          ],
          "name": "withdraw",
          "outputs": [],
          "stateMutability": "nonpayable",
          "type": "function"
        }
      ],
      "evm": {
        "bytecode": {
          "linkReferences": {},
          "object": "608080604052346100645760018060a01b031973ba50cd2a20f6da35d788639e581bca8d0b5d4d5f81600054161760005573036cbd53842c5426634e7929541ec2318f3dcf7e81600154161760015533906002541617600255610365908161006a8239f35b600080fdfe60806040818152600436101561001457600080fd5b600091823560e01c908163238ac9331461029f575080633f5c3cc6146102775780634f4a6b9514610250578063df791e501461014a5763f3fef3a31461005957600080fd5b346101465780600319360112610146576100716102c4565b6002546001600160a01b0392919083163381900361010257825163a9059cbb60e01b81526001600160a01b03919091166004820152602480359082015292602091849160449183918891165af19081156100f957506100ce575080f35b6100ee9060203d81116100f2575b6100e681836102df565b810190610317565b5080f35b503d6100dc565b513d84823e3d90fd5b825162461bcd60e51b815260206004820152601760248201527f596f7520617265206e6f7420746865207369676e6572210000000000000000006044820152606490fd5b5080fd5b503461014657606036600319011261014657816101656102c4565b6001600160a01b039290602435848116919082900361024c57604435908351906323b872dd60e01b8252336004830152306024830152826044830152816064818860209a8b95165af1801561024257918693916101eb93610225575b50845163a9059cbb60e01b8152336004820152602481019190915294859283919082906044820190565b03925af190811561021c57506101ff578280f35b8161021592903d106100f2576100e681836102df565b5038808280f35b513d85823e3d90fd5b61023b90853d87116100f2576100e681836102df565b50386101c1565b84513d87823e3d90fd5b8380fd5b5034610146578160031936011261014657905490516001600160a01b039091168152602090f35b503461014657816003193601126101465760015490516001600160a01b039091168152602090f35b8390346101465781600319360112610146576002546001600160a01b03168152602090f35b600435906001600160a01b03821682036102da57565b600080fd5b90601f8019910116810190811067ffffffffffffffff82111761030157604052565b634e487b7160e01b600052604160045260246000fd5b908160209103126102da575180151581036102da579056fea2646970667358221220ea791dd5ab2133b3aba9c1f1aa238ac8c22aecfc7a2da0b50c89d202c7d1c0e064736f6c63430008110033",
          "opcodes": "PUSH1 0x80 DUP1 PUSH1 0x40 MSTORE CALLVALUE PUSH2 0x64 JUMPI PUSH1 0x1 DUP1 PUSH1 0xA0 SHL SUB NOT PUSH20 0xBA50CD2A20F6DA35D788639E581BCA8D0B5D4D5F DUP2 PUSH1 0x0 SLOAD AND OR PUSH1 0x0 SSTORE PUSH20 0x36CBD53842C5426634E7929541EC2318F3DCF7E DUP2 PUSH1 0x1 SLOAD AND OR PUSH1 0x1 SSTORE CALLER SWAP1 PUSH1 0x2 SLOAD AND OR PUSH1 0x2 SSTORE PUSH2 0x365 SWAP1 DUP2 PUSH2 0x6A DUP3 CODECOPY RETURN JUMPDEST PUSH1 0x0 DUP1 REVERT INVALID PUSH1 0x80 PUSH1 0x40 DUP2 DUP2 MSTORE PUSH1 0x4 CALLDATASIZE LT ISZERO PUSH2 0x14 JUMPI PUSH1 0x0 DUP1 REVERT JUMPDEST PUSH1 0x0 SWAP2 DUP3 CALLDATALOAD PUSH1 0xE0 SHR SWAP1 DUP2 PUSH4 0x238AC933 EQ PUSH2 0x29F JUMPI POP DUP1 PUSH4 0x3F5C3CC6 EQ PUSH2 0x277 JUMPI DUP1 PUSH4 0x4F4A6B95 EQ PUSH2 0x250 JUMPI DUP1 PUSH4 0xDF791E50 EQ PUSH2 0x14A JUMPI PUSH4 0xF3FEF3A3 EQ PUSH2 0x59 JUMPI PUSH1 0x0 DUP1 REVERT JUMPDEST CALLVALUE PUSH2 0x146 JUMPI DUP1 PUSH1 0x3 NOT CALLDATASIZE ADD SLT PUSH2 0x146 JUMPI PUSH2 0x71 PUSH2 0x2C4 JUMP JUMPDEST PUSH1 0x2 SLOAD PUSH1 0x1 PUSH1 0x1 PUSH1 0xA0 SHL SUB SWAP3 SWAP2 SWAP1 DUP4 AND CALLER DUP2 SWAP1 SUB PUSH2 0x102 JUMPI DUP3 MLOAD PUSH4 0xA9059CBB PUSH1 0xE0 SHL DUP2 MSTORE PUSH1 0x1 PUSH1 0x1 PUSH1 0xA0 SHL SUB SWAP2 SWAP1 SWAP2 AND PUSH1 0x4 DUP3 ADD MSTORE PUSH1 0x24 DUP1 CALLDATALOAD SWAP1 DUP3 ADD MSTORE SWAP3 PUSH1 0x20 SWAP2 DUP5 SWAP2 PUSH1 0x44 SWAP2 DUP4 SWAP2 DUP9 SWAP2 AND GAS CALL SWAP1 DUP2 ISZERO PUSH2 0xF9 JUMPI POP PUSH2 0xCE JUMPI POP DUP1 RETURN JUMPDEST PUSH2 0xEE SWAP1 PUSH1 0x20 RETURNDATASIZE DUP2 GT PUSH2 0xF2 JUMPI JUMPDEST PUSH2 0xE6 DUP2 DUP4 PUSH2 0x2DF JUMP JUMPDEST DUP2 ADD SWAP1 PUSH2 0x317 JUMP JUMPDEST POP DUP1 RETURN JUMPDEST POP RETURNDATASIZE PUSH2 0xDC JUMP JUMPDEST MLOAD RETURNDATASIZE DUP5 DUP3 RETURNDATACOPY RETURNDATASIZE SWAP1 REVERT JUMPDEST DUP3 MLOAD PUSH3 0x461BCD PUSH1 0xE5 SHL DUP2 MSTORE PUSH1 0x20 PUSH1 0x4 DUP3 ADD MSTORE PUSH1 0x17 PUSH1 0x24 DUP3 ADD MSTORE PUSH32 0x596F7520617265206E6F7420746865207369676E657221000000000000000000 PUSH1 0x44 DUP3 ADD MSTORE PUSH1 0x64 SWAP1 REVERT JUMPDEST POP DUP1 REVERT JUMPDEST POP CALLVALUE PUSH2 0x146 JUMPI PUSH1 0x60 CALLDATASIZE PUSH1 0x3 NOT ADD SLT PUSH2 0x146 JUMPI DUP2 PUSH2 0x165 PUSH2 0x2C4 JUMP JUMPDEST PUSH1 0x1 PUSH1 0x1 PUSH1 0xA0 SHL SUB SWAP3 SWAP1 PUSH1 0x24 CALLDATALOAD DUP5 DUP2 AND SWAP2 SWAP1 DUP3 SWAP1 SUB PUSH2 0x24C JUMPI PUSH1 0x44 CALLDATALOAD SWAP1 DUP4 MLOAD SWAP1 PUSH4 0x23B872DD PUSH1 0xE0 SHL DUP3 MSTORE CALLER PUSH1 0x4 DUP4 ADD MSTORE ADDRESS PUSH1 0x24 DUP4 ADD MSTORE DUP3 PUSH1 0x44 DUP4 ADD MSTORE DUP2 PUSH1 0x64 DUP2 DUP9 PUSH1 0x20 SWAP11 DUP12 SWAP6 AND GAS CALL DUP1 ISZERO PUSH2 0x242 JUMPI SWAP2 DUP7 SWAP4 SWAP2 PUSH2 0x1EB SWAP4 PUSH2 0x225 JUMPI JUMPDEST POP DUP5 MLOAD PUSH4 0xA9059CBB PUSH1 0xE0 SHL DUP2 MSTORE CALLER PUSH1 0x4 DUP3 ADD MSTORE PUSH1 0x24 DUP2 ADD SWAP2 SWAP1 SWAP2 MSTORE SWAP5 DUP6 SWAP3 DUP4 SWAP2 SWAP1 DUP3 SWAP1 PUSH1 0x44 DUP3 ADD SWAP1 JUMP JUMPDEST SUB SWAP3 GAS CALL SWAP1 DUP2 ISZERO PUSH2 0x21C JUMPI POP PUSH2 0x1FF JUMPI DUP3 DUP1 RETURN JUMPDEST DUP2 PUSH2 0x215 SWAP3 SWAP1 RETURNDATASIZE LT PUSH2 0xF2 JUMPI PUSH2 0xE6 DUP2 DUP4 PUSH2 0x2DF JUMP JUMPDEST POP CODESIZE DUP1 DUP3 DUP1 RETURN JUMPDEST MLOAD RETURNDATASIZE DUP6 DUP3 RETURNDATACOPY RETURNDATASIZE SWAP1 REVERT JUMPDEST PUSH2 0x23B SWAP1 DUP6 RETURNDATASIZE DUP8 GT PUSH2 0xF2 JUMPI PUSH2 0xE6 DUP2 DUP4 PUSH2 0x2DF JUMP JUMPDEST POP CODESIZE PUSH2 0x1C1 JUMP JUMPDEST DUP5 MLOAD RETURNDATASIZE DUP8 DUP3 RETURNDATACOPY RETURNDATASIZE SWAP1 REVERT JUMPDEST DUP4 DUP1 REVERT JUMPDEST POP CALLVALUE PUSH2 0x146 JUMPI DUP2 PUSH1 0x3 NOT CALLDATASIZE ADD SLT PUSH2 0x146 JUMPI SWAP1 SLOAD SWAP1 MLOAD PUSH1 0x1 PUSH1 0x1 PUSH1 0xA0 SHL SUB SWAP1 SWAP2 AND DUP2 MSTORE PUSH1 0x20 SWAP1 RETURN JUMPDEST POP CALLVALUE PUSH2 0x146 JUMPI DUP2 PUSH1 0x3 NOT CALLDATASIZE ADD SLT PUSH2 0x146 JUMPI PUSH1 0x1 SLOAD SWAP1 MLOAD PUSH1 0x1 PUSH1 0x1 PUSH1 0xA0 SHL SUB SWAP1 SWAP2 AND DUP2 MSTORE PUSH1 0x20 SWAP1 RETURN JUMPDEST DUP4 SWAP1 CALLVALUE PUSH2 0x146 JUMPI DUP2 PUSH1 0x3 NOT CALLDATASIZE ADD SLT PUSH2 0x146 JUMPI PUSH1 0x2 SLOAD PUSH1 0x1 PUSH1 0x1 PUSH1 0xA0 SHL SUB AND DUP2 MSTORE PUSH1 0x20 SWAP1 RETURN JUMPDEST PUSH1 0x4 CALLDATALOAD SWAP1 PUSH1 0x1 PUSH1 0x1 PUSH1 0xA0 SHL SUB DUP3 AND DUP3 SUB PUSH2 0x2DA JUMPI JUMP JUMPDEST PUSH1 0x0 DUP1 REVERT JUMPDEST SWAP1 PUSH1 0x1F DUP1 NOT SWAP2 ADD AND DUP2 ADD SWAP1 DUP2 LT PUSH8 0xFFFFFFFFFFFFFFFF DUP3 GT OR PUSH2 0x301 JUMPI PUSH1 0x40 MSTORE JUMP JUMPDEST PUSH4 0x4E487B71 PUSH1 0xE0 SHL PUSH1 0x0 MSTORE PUSH1 0x41 PUSH1 0x4 MSTORE PUSH1 0x24 PUSH1 0x0 REVERT JUMPDEST SWAP1 DUP2 PUSH1 0x20 SWAP2 SUB SLT PUSH2 0x2DA JUMPI MLOAD DUP1 ISZERO ISZERO DUP2 SUB PUSH2 0x2DA JUMPI SWAP1 JUMP INVALID LOG2 PUSH5 0x6970667358 0x22 SLT KECCAK256 0xEA PUSH26 0x1DD5AB2133B3ABA9C1F1AA238AC8C22AECFC7A2DA0B50C89D202 0xC7 0xD1 0xC0 0xE0 PUSH5 0x736F6C6343 STOP ADDMOD GT STOP CALLER "
        },
        "methodIdentifiers": {
          "aaveTestUSDC()": "4f4a6b95",
          "circleTestUSDC()": "3f5c3cc6",
          "signer()": "238ac933",
          "swap(address,address,uint256)": "df791e50",
          "withdraw(address,uint256)": "f3fef3a3"
        }
      }
    }
  }
}