{
  "contracts/JustPay.sol": {
    "JustPayContract": {
      "abi": [
        {
          "inputs": [
            {
              "internalType": "address",
              "name": "_signer",
              "type": "address"
            },
            {
              "internalType": "address",
              "name": "_operator",
              "type": "address"
            }
          ],
          "stateMutability": "nonpayable",
          "type": "constructor"
        },
        {
          "anonymous": false,
          "inputs": [
            {
              "indexed": true,
              "internalType": "uint256",
              "name": "amount",
              "type": "uint256"
            }
          ],
          "name": "depositForBurnEvent",
          "type": "event"
        },
        {
          "anonymous": false,
          "inputs": [
            {
              "indexed": false,
              "internalType": "address",
              "name": "to",
              "type": "address"
            },
            {
              "indexed": false,
              "internalType": "uint256",
              "name": "amount",
              "type": "uint256"
            }
          ],
          "name": "tokenTransferEvent",
          "type": "event"
        },
        {
          "anonymous": false,
          "inputs": [
            {
              "indexed": true,
              "internalType": "uint32",
              "name": "chainId",
              "type": "uint32"
            },
            {
              "indexed": true,
              "internalType": "uint256",
              "name": "nonceUsed",
              "type": "uint256"
            }
          ],
          "name": "usedNoncesEvent",
          "type": "event"
        },
        {
          "inputs": [],
          "name": "operator",
          "outputs": [
            {
              "internalType": "address",
              "name": "",
              "type": "address"
            }
          ],
          "stateMutability": "view",
          "type": "function"
        },
        {
          "inputs": [
            {
              "internalType": "address",
              "name": "burnToken",
              "type": "address"
            },
            {
              "internalType": "uint256",
              "name": "maxFee",
              "type": "uint256"
            },
            {
              "internalType": "uint32",
              "name": "minFinalityThreshold",
              "type": "uint32"
            },
            {
              "internalType": "uint256[]",
              "name": "sourceChainIds",
              "type": "uint256[]"
            },
            {
              "internalType": "uint256[]",
              "name": "amountEach",
              "type": "uint256[]"
            },
            {
              "internalType": "uint256[]",
              "name": "nonces",
              "type": "uint256[]"
            },
            {
              "internalType": "uint256",
              "name": "expirey",
              "type": "uint256"
            },
            {
              "internalType": "uint256",
              "name": "destinationChainId",
              "type": "uint256"
            },
            {
              "internalType": "address",
              "name": "targetAddress",
              "type": "address"
            },
            {
              "internalType": "bytes",
              "name": "signature",
              "type": "bytes"
            }
          ],
          "name": "proxyDepositForBurn",
          "outputs": [],
          "stateMutability": "nonpayable",
          "type": "function"
        },
        {
          "inputs": [
            {
              "internalType": "bytes",
              "name": "message",
              "type": "bytes"
            },
            {
              "internalType": "bytes",
              "name": "attestation",
              "type": "bytes"
            }
          ],
          "name": "proxyReceiveMessage",
          "outputs": [],
          "stateMutability": "nonpayable",
          "type": "function"
        },
        {
          "inputs": [
            {
              "internalType": "address",
              "name": "token",
              "type": "address"
            },
            {
              "internalType": "uint256[]",
              "name": "sourceChainIds",
              "type": "uint256[]"
            },
            {
              "internalType": "uint256[]",
              "name": "amountEach",
              "type": "uint256[]"
            },
            {
              "internalType": "uint256[]",
              "name": "nonces",
              "type": "uint256[]"
            },
            {
              "internalType": "uint256",
              "name": "expirey",
              "type": "uint256"
            },
            {
              "internalType": "uint256",
              "name": "destinationChainId",
              "type": "uint256"
            },
            {
              "internalType": "address",
              "name": "targetAddress",
              "type": "address"
            },
            {
              "internalType": "bytes",
              "name": "signature",
              "type": "bytes"
            }
          ],
          "name": "proxyTransfer",
          "outputs": [],
          "stateMutability": "nonpayable",
          "type": "function"
        },
        {
          "inputs": [
            {
              "internalType": "uint256[]",
              "name": "sourceChainIds",
              "type": "uint256[]"
            },
            {
              "internalType": "uint256[]",
              "name": "amountEach",
              "type": "uint256[]"
            },
            {
              "internalType": "uint256[]",
              "name": "nonces",
              "type": "uint256[]"
            },
            {
              "internalType": "uint256",
              "name": "expirey",
              "type": "uint256"
            },
            {
              "internalType": "uint256",
              "name": "destinationChainId",
              "type": "uint256"
            },
            {
              "internalType": "address",
              "name": "targetAddress",
              "type": "address"
            },
            {
              "internalType": "bytes",
              "name": "signature",
              "type": "bytes"
            }
          ],
          "name": "signatureVerifier",
          "outputs": [
            {
              "components": [
                {
                  "internalType": "uint256",
                  "name": "sourceChainId",
                  "type": "uint256"
                },
                {
                  "internalType": "uint256",
                  "name": "amount",
                  "type": "uint256"
                },
                {
                  "internalType": "uint256",
                  "name": "nonce",
                  "type": "uint256"
                },
                {
                  "internalType": "uint256",
                  "name": "destinationChainId",
                  "type": "uint256"
                },
                {
                  "internalType": "address",
                  "name": "targetAddress",
                  "type": "address"
                }
              ],
              "internalType": "struct JustPayContract.LocalSignature",
              "name": "",
              "type": "tuple"
            }
          ],
          "stateMutability": "nonpayable",
          "type": "function"
        },
        {
          "inputs": [],
          "name": "signer",
          "outputs": [
            {
              "internalType": "address",
              "name": "",
              "type": "address"
            }
          ],
          "stateMutability": "view",
          "type": "function"
        },
        {
          "inputs": [
            {
              "internalType": "uint256",
              "name": "",
              "type": "uint256"
            }
          ],
          "name": "usedNonces",
          "outputs": [
            {
              "internalType": "bool",
              "name": "",
              "type": "bool"
            }
          ],
          "stateMutability": "view",
          "type": "function"
        }
      ],
      "evm": {
        "bytecode": {
          "linkReferences": {},
          "object": "6080346100f75761110a90601f38839003908101601f19168201906001600160401b038211838310176100fc57808391604095869485528339810103126100f75781816100596020610052600b95610112565b9201610112565b60018060a01b031990738fe6b999dc680ccfdd5bf7eb0974218be2542daa82600454161760045573e737e5cebeeba77efe34d4aa090756590b1ce27582600554161760055560018060a01b03908160009416838554161784551690600154161760015562aa36a781526003602052808281205561a869815260018282205562014a34815260068282205561e7058152205551610fe390816101278239f35b600080fd5b634e487b7160e01b600052604160045260246000fd5b51906001600160a01b03821682036100f75756fe60806040526004361015610013575b600080fd5b6000803560e01c908163238ac933146100a25750806348eef5b6146100995780634b8c367614610090578063570ca735146100875780636717e41c1461007e578063bf37e8c6146100755763d56dc8df1461006d57600080fd5b61000e610553565b5061000e610442565b5061000e610410565b5061000e6103e6565b5061000e610338565b5061000e610281565b346100c657806003193601126100c657546001600160a01b03166080908152602090f35b80fd5b600091031261000e57565b600435906001600160a01b038216820361000e57565b60c435906001600160a01b038216820361000e57565b61010435906001600160a01b038216820361000e57565b60a435906001600160a01b038216820361000e57565b50634e487b7160e01b600052604160045260246000fd5b67ffffffffffffffff811161015857604052565b61016061012d565b604052565b90601f8019910116810190811067ffffffffffffffff82111761015857604052565b6040519060a0820182811067ffffffffffffffff82111761015857604052565b9080601f8301121561000e5781359067ffffffffffffffff821161020f575b8160051b604051936020936101dd85840187610165565b8552838086019282010192831161000e578301905b828210610200575050505090565b813581529083019083016101f2565b61021761012d565b6101c6565b81601f8201121561000e5780359067ffffffffffffffff8211610274575b60405192610252601f8401601f191660200185610165565b8284526020838301011161000e57816000926020809301838601378301015290565b61027c61012d565b61023a565b503461000e5761010036600319011261000e5761029c6100d4565b67ffffffffffffffff9060243582811161000e576102be9036906004016101a7565b9060443583811161000e576102d79036906004016101a7565b9160643584811161000e576102f09036906004016101a7565b916102f96100ea565b9260e43595861161000e5761031561032396369060040161021c565b9460a4359360843593610ba1565b005b6044359063ffffffff8216820361000e57565b503461000e5761014036600319011261000e576103536100d4565b61035b610325565b67ffffffffffffffff9160643583811161000e5761037d9036906004016101a7565b9160843584811161000e576103969036906004016101a7565b9160a43585811161000e576103af9036906004016101a7565b6103b7610100565b936101243596871161000e576103d461032397369060040161021c565b9560e4359460c4359460243590610d33565b503461000e57600036600319011261000e576001546040516001600160a01b039091168152602090f35b503461000e57602036600319011261000e576004356000526002602052602060ff604060002054166040519015158152f35b503461000e5760e036600319011261000e5767ffffffffffffffff60043581811161000e576104759036906004016101a7565b9060243581811161000e5761048e9036906004016101a7565b60443582811161000e576104a69036906004016101a7565b906104af610117565b9060c43593841161000e57610521946104cf6104dd95369060040161021c565b936084359260643592610877565b60405191829182919091608060a0820193805183526020810151602084015260408101516040840152606081015160608401528160018060a01b0391015116910152565b0390f35b9181601f8401121561000e5782359167ffffffffffffffff831161000e576020838186019501011161000e57565b503461000e5760031960403682011261000e5767ffffffffffffffff60043581811161000e57610587903690600401610525565b60249291923591821161000e5760209260006105f1926105ae6105e2953690600401610525565b94909760018060a01b036005541695604051998a9889978896630afd9fa560e31b8852604060048901526044880191610f8c565b92858403016024860152610f8c565b03925af18015610629575b61060257005b6103239060203d8111610622575b61061a8183610165565b810190610cba565b503d610610565b61063161082a565b6105fc565b6040519060a0820182811067ffffffffffffffff821117610673575b60405260006080838281528260208201528260408201528260608201520152565b61067b61012d565b610652565b1561068757565b60405162461bcd60e51b81526020600482015260146024820152731cda59db985d1d5c99481a5cc8195e1c1a5c995960621b6044820152606490fd5b50634e487b7160e01b600052601160045260246000fd5b90600182018092116106e857565b6106f06106c3565b565b80518210156107065760209160051b010190565b634e487b7160e01b600052603260045260246000fd5b1561072357565b60405162461bcd60e51b815260206004820152601b60248201527f6e6f7420617574686f72697a656420736f7572636520636861696e00000000006044820152606490fd5b1561076f57565b60405162461bcd60e51b815260206004820152600b60248201526a6e6f6e636520757365642160a81b6044820152606490fd5b90815180825260208080930193019160005b8281106107c2575050505090565b8351855293810193928101926001016107b4565b94919261080560a0959897946107f76108139460c08a5260c08a01906107a2565b9088820360208a01526107a2565b9086820360408801526107a2565b9560608501526080840152600180831b0316910152565b506040513d6000823e3d90fd5b1561083e57565b60405162461bcd60e51b8152602060048201526011602482015270496e76616c6964207369676e617475726560781b6044820152606490fd5b90949392610883610636565b5061088f814210610680565b60009687805b8451811015610aba57466108a982876106f2565b51146108bd576108b8906106da565b610895565b8899508693915085928589929586948580946001610aaa9f610a7e9c610a779b610994610a709b602099600099610957610a269a6108fd610a009a61071c565b61093461092f61092b610924610913858c6106f2565b516000526002602052604060002090565b5460ff1690565b1590565b610768565b610951610944610913838a6106f2565b805460ff19166001179055565b866106f2565b519460405197889663ffffffff46167f4d2424583f69260833c556539a5b832bbd7b4173f59d25210b776bec668373d28f80a38d870197886107d6565b03916109a8601f1993848101835282610165565b519020906109f760405191826109eb8a82019586603c917f19457468657265756d205369676e6564204d6573736167653a0a3332000000008252601c8201520190565b03908101835282610165565b51902091610af1565b6040805194855260ff909116602085015283019190915260608201529081906080820190565b838052039060015afa15610aad575b600080519054610a6b9190610a5a906001600160a01b03165b6001600160a01b031690565b6001600160a01b0390911614610837565b6106f2565b51986106f2565b51926106f2565b5190610a88610187565b9586526020860152604085015260608401526001600160a01b03166080830152565b90565b610ab561082a565b610a35565b50610a70818560206000610a26610a77978e9f610aaa9f8f9c8f8f90610a7e9f8b9f91610994926109578e6108fd610a009a61071c565b6041815103610b10576020810151916060604083015192015160001a90565b60405162461bcd60e51b815260206004820152601860248201527f696e76616c6964207369676e6174757265206c656e67746800000000000000006044820152606490fd5b15610b5c57565b60405162461bcd60e51b815260206004820152601960248201527f596f7520617265206e6f7420746865206f70657261746f7221000000000000006044820152606490fd5b9091610c13608087610c05610bfd7f2c4f4f63ca317b393c3b566783ff16738e546a073789d71acfe23fc03bc9184c9c60009c610c1b9c610c599c60209c8a610bf89d60018060a01b039e8f600154163314610b55565b610877565b914614610cb3565b01516001600160a01b031690565b958691610cd2565b87546040516323b872dd60e01b81526001600160a01b0391821660048201529216602483015260448201819052969094859384929183906064820190565b0393165af18015610ca6575b610c88575b50604080516001600160a01b039290921682526020820192909252a1565b610c9f9060203d81116106225761061a8183610165565b5038610c6a565b610cae61082a565b610c65565b1561000e57565b9081602091031261000e5751801515810361000e5790565b600090805182905b808210610ce75750505090565b90919392600190610cf884876106f2565b518101809111610d26575b926000198114610d19575b019093919293610cda565b610d216106c3565b610d0e565b610d2e6106c3565b610d03565b9590979299989394610d599597929760018060a01b039b610bf88d600154163314610b55565b92602092610d86610d7c6060868801519701516000526003602052604060002090565b5463ffffffff1690565b90600094610e458188610da5610a4e610a4e8b5460018060a01b031690565b9b8816610df483838c610dbf60045460018060a01b031690565b60405163095ea7b360e01b81526001600160a01b03909116600482015260248101929092529092839190829081906044820190565b0391865af18015610f7f575b610f62575b5089546040516323b872dd60e01b81526001600160a01b0390911660048201523060248201526044810192909252909283919082908b9082906064820190565b03925af18015610f55575b610f37575b5050600454610e6e90610a4e906001600160a01b031681565b92833b15610f3357604051634701287760e11b81526004810188905263ffffffff938416602482015260448101999099526001600160a01b0390941660648901526000608489015260a488019390935290911660c4860152929391927fef170ff2108a9a34ffae60c98d6e9eff09d2f464437449bb09dd4231ced1cf5892908290829081838160e4810103925af18015610f26575b610f0d575b5080a2565b80610f1a610f2092610144565b806100c9565b38610f08565b610f2e61082a565b610f03565b8580fd5b81610f4d92903d106106225761061a8183610165565b503880610e55565b610f5d61082a565b610e50565b610f7890843d86116106225761061a8183610165565b5038610e05565b610f8761082a565b610e00565b908060209392818452848401376000828201840152601f01601f191601019056fea2646970667358221220604c56ec16e6462349b97a2a325ac4547a761f63bbed6af3d34f5379b975544064736f6c63430008110033",
          "opcodes": "PUSH1 0x80 CALLVALUE PUSH2 0xF7 JUMPI PUSH2 0x110A SWAP1 PUSH1 0x1F CODESIZE DUP4 SWAP1 SUB SWAP1 DUP2 ADD PUSH1 0x1F NOT AND DUP3 ADD SWAP1 PUSH1 0x1 PUSH1 0x1 PUSH1 0x40 SHL SUB DUP3 GT DUP4 DUP4 LT OR PUSH2 0xFC JUMPI DUP1 DUP4 SWAP2 PUSH1 0x40 SWAP6 DUP7 SWAP5 DUP6 MSTORE DUP4 CODECOPY DUP2 ADD SUB SLT PUSH2 0xF7 JUMPI DUP2 DUP2 PUSH2 0x59 PUSH1 0x20 PUSH2 0x52 PUSH1 0xB SWAP6 PUSH2 0x112 JUMP JUMPDEST SWAP3 ADD PUSH2 0x112 JUMP JUMPDEST PUSH1 0x1 DUP1 PUSH1 0xA0 SHL SUB NOT SWAP1 PUSH20 0x8FE6B999DC680CCFDD5BF7EB0974218BE2542DAA DUP3 PUSH1 0x4 SLOAD AND OR PUSH1 0x4 SSTORE PUSH20 0xE737E5CEBEEBA77EFE34D4AA090756590B1CE275 DUP3 PUSH1 0x5 SLOAD AND OR PUSH1 0x5 SSTORE PUSH1 0x1 DUP1 PUSH1 0xA0 SHL SUB SWAP1 DUP2 PUSH1 0x0 SWAP5 AND DUP4 DUP6 SLOAD AND OR DUP5 SSTORE AND SWAP1 PUSH1 0x1 SLOAD AND OR PUSH1 0x1 SSTORE PUSH3 0xAA36A7 DUP2 MSTORE PUSH1 0x3 PUSH1 0x20 MSTORE DUP1 DUP3 DUP2 KECCAK256 SSTORE PUSH2 0xA869 DUP2 MSTORE PUSH1 0x1 DUP3 DUP3 KECCAK256 SSTORE PUSH3 0x14A34 DUP2 MSTORE PUSH1 0x6 DUP3 DUP3 KECCAK256 SSTORE PUSH2 0xE705 DUP2 MSTORE KECCAK256 SSTORE MLOAD PUSH2 0xFE3 SWAP1 DUP2 PUSH2 0x127 DUP3 CODECOPY RETURN JUMPDEST PUSH1 0x0 DUP1 REVERT JUMPDEST PUSH4 0x4E487B71 PUSH1 0xE0 SHL PUSH1 0x0 MSTORE PUSH1 0x41 PUSH1 0x4 MSTORE PUSH1 0x24 PUSH1 0x0 REVERT JUMPDEST MLOAD SWAP1 PUSH1 0x1 PUSH1 0x1 PUSH1 0xA0 SHL SUB DUP3 AND DUP3 SUB PUSH2 0xF7 JUMPI JUMP INVALID PUSH1 0x80 PUSH1 0x40 MSTORE PUSH1 0x4 CALLDATASIZE LT ISZERO PUSH2 0x13 JUMPI JUMPDEST PUSH1 0x0 DUP1 REVERT JUMPDEST PUSH1 0x0 DUP1 CALLDATALOAD PUSH1 0xE0 SHR SWAP1 DUP2 PUSH4 0x238AC933 EQ PUSH2 0xA2 JUMPI POP DUP1 PUSH4 0x48EEF5B6 EQ PUSH2 0x99 JUMPI DUP1 PUSH4 0x4B8C3676 EQ PUSH2 0x90 JUMPI DUP1 PUSH4 0x570CA735 EQ PUSH2 0x87 JUMPI DUP1 PUSH4 0x6717E41C EQ PUSH2 0x7E JUMPI DUP1 PUSH4 0xBF37E8C6 EQ PUSH2 0x75 JUMPI PUSH4 0xD56DC8DF EQ PUSH2 0x6D JUMPI PUSH1 0x0 DUP1 REVERT JUMPDEST PUSH2 0xE PUSH2 0x553 JUMP JUMPDEST POP PUSH2 0xE PUSH2 0x442 JUMP JUMPDEST POP PUSH2 0xE PUSH2 0x410 JUMP JUMPDEST POP PUSH2 0xE PUSH2 0x3E6 JUMP JUMPDEST POP PUSH2 0xE PUSH2 0x338 JUMP JUMPDEST POP PUSH2 0xE PUSH2 0x281 JUMP JUMPDEST CALLVALUE PUSH2 0xC6 JUMPI DUP1 PUSH1 0x3 NOT CALLDATASIZE ADD SLT PUSH2 0xC6 JUMPI SLOAD PUSH1 0x1 PUSH1 0x1 PUSH1 0xA0 SHL SUB AND PUSH1 0x80 SWAP1 DUP2 MSTORE PUSH1 0x20 SWAP1 RETURN JUMPDEST DUP1 REVERT JUMPDEST PUSH1 0x0 SWAP2 SUB SLT PUSH2 0xE JUMPI JUMP JUMPDEST PUSH1 0x4 CALLDATALOAD SWAP1 PUSH1 0x1 PUSH1 0x1 PUSH1 0xA0 SHL SUB DUP3 AND DUP3 SUB PUSH2 0xE JUMPI JUMP JUMPDEST PUSH1 0xC4 CALLDATALOAD SWAP1 PUSH1 0x1 PUSH1 0x1 PUSH1 0xA0 SHL SUB DUP3 AND DUP3 SUB PUSH2 0xE JUMPI JUMP JUMPDEST PUSH2 0x104 CALLDATALOAD SWAP1 PUSH1 0x1 PUSH1 0x1 PUSH1 0xA0 SHL SUB DUP3 AND DUP3 SUB PUSH2 0xE JUMPI JUMP JUMPDEST PUSH1 0xA4 CALLDATALOAD SWAP1 PUSH1 0x1 PUSH1 0x1 PUSH1 0xA0 SHL SUB DUP3 AND DUP3 SUB PUSH2 0xE JUMPI JUMP JUMPDEST POP PUSH4 0x4E487B71 PUSH1 0xE0 SHL PUSH1 0x0 MSTORE PUSH1 0x41 PUSH1 0x4 MSTORE PUSH1 0x24 PUSH1 0x0 REVERT JUMPDEST PUSH8 0xFFFFFFFFFFFFFFFF DUP2 GT PUSH2 0x158 JUMPI PUSH1 0x40 MSTORE JUMP JUMPDEST PUSH2 0x160 PUSH2 0x12D JUMP JUMPDEST PUSH1 0x40 MSTORE JUMP JUMPDEST SWAP1 PUSH1 0x1F DUP1 NOT SWAP2 ADD AND DUP2 ADD SWAP1 DUP2 LT PUSH8 0xFFFFFFFFFFFFFFFF DUP3 GT OR PUSH2 0x158 JUMPI PUSH1 0x40 MSTORE JUMP JUMPDEST PUSH1 0x40 MLOAD SWAP1 PUSH1 0xA0 DUP3 ADD DUP3 DUP2 LT PUSH8 0xFFFFFFFFFFFFFFFF DUP3 GT OR PUSH2 0x158 JUMPI PUSH1 0x40 MSTORE JUMP JUMPDEST SWAP1 DUP1 PUSH1 0x1F DUP4 ADD SLT ISZERO PUSH2 0xE JUMPI DUP2 CALLDATALOAD SWAP1 PUSH8 0xFFFFFFFFFFFFFFFF DUP3 GT PUSH2 0x20F JUMPI JUMPDEST DUP2 PUSH1 0x5 SHL PUSH1 0x40 MLOAD SWAP4 PUSH1 0x20 SWAP4 PUSH2 0x1DD DUP6 DUP5 ADD DUP8 PUSH2 0x165 JUMP JUMPDEST DUP6 MSTORE DUP4 DUP1 DUP7 ADD SWAP3 DUP3 ADD ADD SWAP3 DUP4 GT PUSH2 0xE JUMPI DUP4 ADD SWAP1 JUMPDEST DUP3 DUP3 LT PUSH2 0x200 JUMPI POP POP POP POP SWAP1 JUMP JUMPDEST DUP2 CALLDATALOAD DUP2 MSTORE SWAP1 DUP4 ADD SWAP1 DUP4 ADD PUSH2 0x1F2 JUMP JUMPDEST PUSH2 0x217 PUSH2 0x12D JUMP JUMPDEST PUSH2 0x1C6 JUMP JUMPDEST DUP2 PUSH1 0x1F DUP3 ADD SLT ISZERO PUSH2 0xE JUMPI DUP1 CALLDATALOAD SWAP1 PUSH8 0xFFFFFFFFFFFFFFFF DUP3 GT PUSH2 0x274 JUMPI JUMPDEST PUSH1 0x40 MLOAD SWAP3 PUSH2 0x252 PUSH1 0x1F DUP5 ADD PUSH1 0x1F NOT AND PUSH1 0x20 ADD DUP6 PUSH2 0x165 JUMP JUMPDEST DUP3 DUP5 MSTORE PUSH1 0x20 DUP4 DUP4 ADD ADD GT PUSH2 0xE JUMPI DUP2 PUSH1 0x0 SWAP3 PUSH1 0x20 DUP1 SWAP4 ADD DUP4 DUP7 ADD CALLDATACOPY DUP4 ADD ADD MSTORE SWAP1 JUMP JUMPDEST PUSH2 0x27C PUSH2 0x12D JUMP JUMPDEST PUSH2 0x23A JUMP JUMPDEST POP CALLVALUE PUSH2 0xE JUMPI PUSH2 0x100 CALLDATASIZE PUSH1 0x3 NOT ADD SLT PUSH2 0xE JUMPI PUSH2 0x29C PUSH2 0xD4 JUMP JUMPDEST PUSH8 0xFFFFFFFFFFFFFFFF SWAP1 PUSH1 0x24 CALLDATALOAD DUP3 DUP2 GT PUSH2 0xE JUMPI PUSH2 0x2BE SWAP1 CALLDATASIZE SWAP1 PUSH1 0x4 ADD PUSH2 0x1A7 JUMP JUMPDEST SWAP1 PUSH1 0x44 CALLDATALOAD DUP4 DUP2 GT PUSH2 0xE JUMPI PUSH2 0x2D7 SWAP1 CALLDATASIZE SWAP1 PUSH1 0x4 ADD PUSH2 0x1A7 JUMP JUMPDEST SWAP2 PUSH1 0x64 CALLDATALOAD DUP5 DUP2 GT PUSH2 0xE JUMPI PUSH2 0x2F0 SWAP1 CALLDATASIZE SWAP1 PUSH1 0x4 ADD PUSH2 0x1A7 JUMP JUMPDEST SWAP2 PUSH2 0x2F9 PUSH2 0xEA JUMP JUMPDEST SWAP3 PUSH1 0xE4 CALLDATALOAD SWAP6 DUP7 GT PUSH2 0xE JUMPI PUSH2 0x315 PUSH2 0x323 SWAP7 CALLDATASIZE SWAP1 PUSH1 0x4 ADD PUSH2 0x21C JUMP JUMPDEST SWAP5 PUSH1 0xA4 CALLDATALOAD SWAP4 PUSH1 0x84 CALLDATALOAD SWAP4 PUSH2 0xBA1 JUMP JUMPDEST STOP JUMPDEST PUSH1 0x44 CALLDATALOAD SWAP1 PUSH4 0xFFFFFFFF DUP3 AND DUP3 SUB PUSH2 0xE JUMPI JUMP JUMPDEST POP CALLVALUE PUSH2 0xE JUMPI PUSH2 0x140 CALLDATASIZE PUSH1 0x3 NOT ADD SLT PUSH2 0xE JUMPI PUSH2 0x353 PUSH2 0xD4 JUMP JUMPDEST PUSH2 0x35B PUSH2 0x325 JUMP JUMPDEST PUSH8 0xFFFFFFFFFFFFFFFF SWAP2 PUSH1 0x64 CALLDATALOAD DUP4 DUP2 GT PUSH2 0xE JUMPI PUSH2 0x37D SWAP1 CALLDATASIZE SWAP1 PUSH1 0x4 ADD PUSH2 0x1A7 JUMP JUMPDEST SWAP2 PUSH1 0x84 CALLDATALOAD DUP5 DUP2 GT PUSH2 0xE JUMPI PUSH2 0x396 SWAP1 CALLDATASIZE SWAP1 PUSH1 0x4 ADD PUSH2 0x1A7 JUMP JUMPDEST SWAP2 PUSH1 0xA4 CALLDATALOAD DUP6 DUP2 GT PUSH2 0xE JUMPI PUSH2 0x3AF SWAP1 CALLDATASIZE SWAP1 PUSH1 0x4 ADD PUSH2 0x1A7 JUMP JUMPDEST PUSH2 0x3B7 PUSH2 0x100 JUMP JUMPDEST SWAP4 PUSH2 0x124 CALLDATALOAD SWAP7 DUP8 GT PUSH2 0xE JUMPI PUSH2 0x3D4 PUSH2 0x323 SWAP8 CALLDATASIZE SWAP1 PUSH1 0x4 ADD PUSH2 0x21C JUMP JUMPDEST SWAP6 PUSH1 0xE4 CALLDATALOAD SWAP5 PUSH1 0xC4 CALLDATALOAD SWAP5 PUSH1 0x24 CALLDATALOAD SWAP1 PUSH2 0xD33 JUMP JUMPDEST POP CALLVALUE PUSH2 0xE JUMPI PUSH1 0x0 CALLDATASIZE PUSH1 0x3 NOT ADD SLT PUSH2 0xE JUMPI PUSH1 0x1 SLOAD PUSH1 0x40 MLOAD PUSH1 0x1 PUSH1 0x1 PUSH1 0xA0 SHL SUB SWAP1 SWAP2 AND DUP2 MSTORE PUSH1 0x20 SWAP1 RETURN JUMPDEST POP CALLVALUE PUSH2 0xE JUMPI PUSH1 0x20 CALLDATASIZE PUSH1 0x3 NOT ADD SLT PUSH2 0xE JUMPI PUSH1 0x4 CALLDATALOAD PUSH1 0x0 MSTORE PUSH1 0x2 PUSH1 0x20 MSTORE PUSH1 0x20 PUSH1 0xFF PUSH1 0x40 PUSH1 0x0 KECCAK256 SLOAD AND PUSH1 0x40 MLOAD SWAP1 ISZERO ISZERO DUP2 MSTORE RETURN JUMPDEST POP CALLVALUE PUSH2 0xE JUMPI PUSH1 0xE0 CALLDATASIZE PUSH1 0x3 NOT ADD SLT PUSH2 0xE JUMPI PUSH8 0xFFFFFFFFFFFFFFFF PUSH1 0x4 CALLDATALOAD DUP2 DUP2 GT PUSH2 0xE JUMPI PUSH2 0x475 SWAP1 CALLDATASIZE SWAP1 PUSH1 0x4 ADD PUSH2 0x1A7 JUMP JUMPDEST SWAP1 PUSH1 0x24 CALLDATALOAD DUP2 DUP2 GT PUSH2 0xE JUMPI PUSH2 0x48E SWAP1 CALLDATASIZE SWAP1 PUSH1 0x4 ADD PUSH2 0x1A7 JUMP JUMPDEST PUSH1 0x44 CALLDATALOAD DUP3 DUP2 GT PUSH2 0xE JUMPI PUSH2 0x4A6 SWAP1 CALLDATASIZE SWAP1 PUSH1 0x4 ADD PUSH2 0x1A7 JUMP JUMPDEST SWAP1 PUSH2 0x4AF PUSH2 0x117 JUMP JUMPDEST SWAP1 PUSH1 0xC4 CALLDATALOAD SWAP4 DUP5 GT PUSH2 0xE JUMPI PUSH2 0x521 SWAP5 PUSH2 0x4CF PUSH2 0x4DD SWAP6 CALLDATASIZE SWAP1 PUSH1 0x4 ADD PUSH2 0x21C JUMP JUMPDEST SWAP4 PUSH1 0x84 CALLDATALOAD SWAP3 PUSH1 0x64 CALLDATALOAD SWAP3 PUSH2 0x877 JUMP JUMPDEST PUSH1 0x40 MLOAD SWAP2 DUP3 SWAP2 DUP3 SWAP2 SWAP1 SWAP2 PUSH1 0x80 PUSH1 0xA0 DUP3 ADD SWAP4 DUP1 MLOAD DUP4 MSTORE PUSH1 0x20 DUP2 ADD MLOAD PUSH1 0x20 DUP5 ADD MSTORE PUSH1 0x40 DUP2 ADD MLOAD PUSH1 0x40 DUP5 ADD MSTORE PUSH1 0x60 DUP2 ADD MLOAD PUSH1 0x60 DUP5 ADD MSTORE DUP2 PUSH1 0x1 DUP1 PUSH1 0xA0 SHL SUB SWAP2 ADD MLOAD AND SWAP2 ADD MSTORE JUMP JUMPDEST SUB SWAP1 RETURN JUMPDEST SWAP2 DUP2 PUSH1 0x1F DUP5 ADD SLT ISZERO PUSH2 0xE JUMPI DUP3 CALLDATALOAD SWAP2 PUSH8 0xFFFFFFFFFFFFFFFF DUP4 GT PUSH2 0xE JUMPI PUSH1 0x20 DUP4 DUP2 DUP7 ADD SWAP6 ADD ADD GT PUSH2 0xE JUMPI JUMP JUMPDEST POP CALLVALUE PUSH2 0xE JUMPI PUSH1 0x3 NOT PUSH1 0x40 CALLDATASIZE DUP3 ADD SLT PUSH2 0xE JUMPI PUSH8 0xFFFFFFFFFFFFFFFF PUSH1 0x4 CALLDATALOAD DUP2 DUP2 GT PUSH2 0xE JUMPI PUSH2 0x587 SWAP1 CALLDATASIZE SWAP1 PUSH1 0x4 ADD PUSH2 0x525 JUMP JUMPDEST PUSH1 0x24 SWAP3 SWAP2 SWAP3 CALLDATALOAD SWAP2 DUP3 GT PUSH2 0xE JUMPI PUSH1 0x20 SWAP3 PUSH1 0x0 PUSH2 0x5F1 SWAP3 PUSH2 0x5AE PUSH2 0x5E2 SWAP6 CALLDATASIZE SWAP1 PUSH1 0x4 ADD PUSH2 0x525 JUMP JUMPDEST SWAP5 SWAP1 SWAP8 PUSH1 0x1 DUP1 PUSH1 0xA0 SHL SUB PUSH1 0x5 SLOAD AND SWAP6 PUSH1 0x40 MLOAD SWAP10 DUP11 SWAP9 DUP10 SWAP8 DUP9 SWAP7 PUSH4 0xAFD9FA5 PUSH1 0xE3 SHL DUP9 MSTORE PUSH1 0x40 PUSH1 0x4 DUP10 ADD MSTORE PUSH1 0x44 DUP9 ADD SWAP2 PUSH2 0xF8C JUMP JUMPDEST SWAP3 DUP6 DUP5 SUB ADD PUSH1 0x24 DUP7 ADD MSTORE PUSH2 0xF8C JUMP JUMPDEST SUB SWAP3 GAS CALL DUP1 ISZERO PUSH2 0x629 JUMPI JUMPDEST PUSH2 0x602 JUMPI STOP JUMPDEST PUSH2 0x323 SWAP1 PUSH1 0x20 RETURNDATASIZE DUP2 GT PUSH2 0x622 JUMPI JUMPDEST PUSH2 0x61A DUP2 DUP4 PUSH2 0x165 JUMP JUMPDEST DUP2 ADD SWAP1 PUSH2 0xCBA JUMP JUMPDEST POP RETURNDATASIZE PUSH2 0x610 JUMP JUMPDEST PUSH2 0x631 PUSH2 0x82A JUMP JUMPDEST PUSH2 0x5FC JUMP JUMPDEST PUSH1 0x40 MLOAD SWAP1 PUSH1 0xA0 DUP3 ADD DUP3 DUP2 LT PUSH8 0xFFFFFFFFFFFFFFFF DUP3 GT OR PUSH2 0x673 JUMPI JUMPDEST PUSH1 0x40 MSTORE PUSH1 0x0 PUSH1 0x80 DUP4 DUP3 DUP2 MSTORE DUP3 PUSH1 0x20 DUP3 ADD MSTORE DUP3 PUSH1 0x40 DUP3 ADD MSTORE DUP3 PUSH1 0x60 DUP3 ADD MSTORE ADD MSTORE JUMP JUMPDEST PUSH2 0x67B PUSH2 0x12D JUMP JUMPDEST PUSH2 0x652 JUMP JUMPDEST ISZERO PUSH2 0x687 JUMPI JUMP JUMPDEST PUSH1 0x40 MLOAD PUSH3 0x461BCD PUSH1 0xE5 SHL DUP2 MSTORE PUSH1 0x20 PUSH1 0x4 DUP3 ADD MSTORE PUSH1 0x14 PUSH1 0x24 DUP3 ADD MSTORE PUSH20 0x1CDA59DB985D1D5C99481A5CC8195E1C1A5C9959 PUSH1 0x62 SHL PUSH1 0x44 DUP3 ADD MSTORE PUSH1 0x64 SWAP1 REVERT JUMPDEST POP PUSH4 0x4E487B71 PUSH1 0xE0 SHL PUSH1 0x0 MSTORE PUSH1 0x11 PUSH1 0x4 MSTORE PUSH1 0x24 PUSH1 0x0 REVERT JUMPDEST SWAP1 PUSH1 0x1 DUP3 ADD DUP1 SWAP3 GT PUSH2 0x6E8 JUMPI JUMP JUMPDEST PUSH2 0x6F0 PUSH2 0x6C3 JUMP JUMPDEST JUMP JUMPDEST DUP1 MLOAD DUP3 LT ISZERO PUSH2 0x706 JUMPI PUSH1 0x20 SWAP2 PUSH1 0x5 SHL ADD ADD SWAP1 JUMP JUMPDEST PUSH4 0x4E487B71 PUSH1 0xE0 SHL PUSH1 0x0 MSTORE PUSH1 0x32 PUSH1 0x4 MSTORE PUSH1 0x24 PUSH1 0x0 REVERT JUMPDEST ISZERO PUSH2 0x723 JUMPI JUMP JUMPDEST PUSH1 0x40 MLOAD PUSH3 0x461BCD PUSH1 0xE5 SHL DUP2 MSTORE PUSH1 0x20 PUSH1 0x4 DUP3 ADD MSTORE PUSH1 0x1B PUSH1 0x24 DUP3 ADD MSTORE PUSH32 0x6E6F7420617574686F72697A656420736F7572636520636861696E0000000000 PUSH1 0x44 DUP3 ADD MSTORE PUSH1 0x64 SWAP1 REVERT JUMPDEST ISZERO PUSH2 0x76F JUMPI JUMP JUMPDEST PUSH1 0x40 MLOAD PUSH3 0x461BCD PUSH1 0xE5 SHL DUP2 MSTORE PUSH1 0x20 PUSH1 0x4 DUP3 ADD MSTORE PUSH1 0xB PUSH1 0x24 DUP3 ADD MSTORE PUSH11 0x6E6F6E6365207573656421 PUSH1 0xA8 SHL PUSH1 0x44 DUP3 ADD MSTORE PUSH1 0x64 SWAP1 REVERT JUMPDEST SWAP1 DUP2 MLOAD DUP1 DUP3 MSTORE PUSH1 0x20 DUP1 DUP1 SWAP4 ADD SWAP4 ADD SWAP2 PUSH1 0x0 JUMPDEST DUP3 DUP2 LT PUSH2 0x7C2 JUMPI POP POP POP POP SWAP1 JUMP JUMPDEST DUP4 MLOAD DUP6 MSTORE SWAP4 DUP2 ADD SWAP4 SWAP3 DUP2 ADD SWAP3 PUSH1 0x1 ADD PUSH2 0x7B4 JUMP JUMPDEST SWAP5 SWAP2 SWAP3 PUSH2 0x805 PUSH1 0xA0 SWAP6 SWAP9 SWAP8 SWAP5 PUSH2 0x7F7 PUSH2 0x813 SWAP5 PUSH1 0xC0 DUP11 MSTORE PUSH1 0xC0 DUP11 ADD SWAP1 PUSH2 0x7A2 JUMP JUMPDEST SWAP1 DUP9 DUP3 SUB PUSH1 0x20 DUP11 ADD MSTORE PUSH2 0x7A2 JUMP JUMPDEST SWAP1 DUP7 DUP3 SUB PUSH1 0x40 DUP9 ADD MSTORE PUSH2 0x7A2 JUMP JUMPDEST SWAP6 PUSH1 0x60 DUP6 ADD MSTORE PUSH1 0x80 DUP5 ADD MSTORE PUSH1 0x1 DUP1 DUP4 SHL SUB AND SWAP2 ADD MSTORE JUMP JUMPDEST POP PUSH1 0x40 MLOAD RETURNDATASIZE PUSH1 0x0 DUP3 RETURNDATACOPY RETURNDATASIZE SWAP1 REVERT JUMPDEST ISZERO PUSH2 0x83E JUMPI JUMP JUMPDEST PUSH1 0x40 MLOAD PUSH3 0x461BCD PUSH1 0xE5 SHL DUP2 MSTORE PUSH1 0x20 PUSH1 0x4 DUP3 ADD MSTORE PUSH1 0x11 PUSH1 0x24 DUP3 ADD MSTORE PUSH17 0x496E76616C6964207369676E6174757265 PUSH1 0x78 SHL PUSH1 0x44 DUP3 ADD MSTORE PUSH1 0x64 SWAP1 REVERT JUMPDEST SWAP1 SWAP5 SWAP4 SWAP3 PUSH2 0x883 PUSH2 0x636 JUMP JUMPDEST POP PUSH2 0x88F DUP2 TIMESTAMP LT PUSH2 0x680 JUMP JUMPDEST PUSH1 0x0 SWAP7 DUP8 DUP1 JUMPDEST DUP5 MLOAD DUP2 LT ISZERO PUSH2 0xABA JUMPI CHAINID PUSH2 0x8A9 DUP3 DUP8 PUSH2 0x6F2 JUMP JUMPDEST MLOAD EQ PUSH2 0x8BD JUMPI PUSH2 0x8B8 SWAP1 PUSH2 0x6DA JUMP JUMPDEST PUSH2 0x895 JUMP JUMPDEST DUP9 SWAP10 POP DUP7 SWAP4 SWAP2 POP DUP6 SWAP3 DUP6 DUP10 SWAP3 SWAP6 DUP7 SWAP5 DUP6 DUP1 SWAP5 PUSH1 0x1 PUSH2 0xAAA SWAP16 PUSH2 0xA7E SWAP13 PUSH2 0xA77 SWAP12 PUSH2 0x994 PUSH2 0xA70 SWAP12 PUSH1 0x20 SWAP10 PUSH1 0x0 SWAP10 PUSH2 0x957 PUSH2 0xA26 SWAP11 PUSH2 0x8FD PUSH2 0xA00 SWAP11 PUSH2 0x71C JUMP JUMPDEST PUSH2 0x934 PUSH2 0x92F PUSH2 0x92B PUSH2 0x924 PUSH2 0x913 DUP6 DUP13 PUSH2 0x6F2 JUMP JUMPDEST MLOAD PUSH1 0x0 MSTORE PUSH1 0x2 PUSH1 0x20 MSTORE PUSH1 0x40 PUSH1 0x0 KECCAK256 SWAP1 JUMP JUMPDEST SLOAD PUSH1 0xFF AND SWAP1 JUMP JUMPDEST ISZERO SWAP1 JUMP JUMPDEST PUSH2 0x768 JUMP JUMPDEST PUSH2 0x951 PUSH2 0x944 PUSH2 0x913 DUP4 DUP11 PUSH2 0x6F2 JUMP JUMPDEST DUP1 SLOAD PUSH1 0xFF NOT AND PUSH1 0x1 OR SWAP1 SSTORE JUMP JUMPDEST DUP7 PUSH2 0x6F2 JUMP JUMPDEST MLOAD SWAP5 PUSH1 0x40 MLOAD SWAP8 DUP9 SWAP7 PUSH4 0xFFFFFFFF CHAINID AND PUSH32 0x4D2424583F69260833C556539A5B832BBD7B4173F59D25210B776BEC668373D2 DUP16 DUP1 LOG3 DUP14 DUP8 ADD SWAP8 DUP9 PUSH2 0x7D6 JUMP JUMPDEST SUB SWAP2 PUSH2 0x9A8 PUSH1 0x1F NOT SWAP4 DUP5 DUP2 ADD DUP4 MSTORE DUP3 PUSH2 0x165 JUMP JUMPDEST MLOAD SWAP1 KECCAK256 SWAP1 PUSH2 0x9F7 PUSH1 0x40 MLOAD SWAP2 DUP3 PUSH2 0x9EB DUP11 DUP3 ADD SWAP6 DUP7 PUSH1 0x3C SWAP2 PUSH32 0x19457468657265756D205369676E6564204D6573736167653A0A333200000000 DUP3 MSTORE PUSH1 0x1C DUP3 ADD MSTORE ADD SWAP1 JUMP JUMPDEST SUB SWAP1 DUP2 ADD DUP4 MSTORE DUP3 PUSH2 0x165 JUMP JUMPDEST MLOAD SWAP1 KECCAK256 SWAP2 PUSH2 0xAF1 JUMP JUMPDEST PUSH1 0x40 DUP1 MLOAD SWAP5 DUP6 MSTORE PUSH1 0xFF SWAP1 SWAP2 AND PUSH1 0x20 DUP6 ADD MSTORE DUP4 ADD SWAP2 SWAP1 SWAP2 MSTORE PUSH1 0x60 DUP3 ADD MSTORE SWAP1 DUP2 SWAP1 PUSH1 0x80 DUP3 ADD SWAP1 JUMP JUMPDEST DUP4 DUP1 MSTORE SUB SWAP1 PUSH1 0x1 GAS STATICCALL ISZERO PUSH2 0xAAD JUMPI JUMPDEST PUSH1 0x0 DUP1 MLOAD SWAP1 SLOAD PUSH2 0xA6B SWAP2 SWAP1 PUSH2 0xA5A SWAP1 PUSH1 0x1 PUSH1 0x1 PUSH1 0xA0 SHL SUB AND JUMPDEST PUSH1 0x1 PUSH1 0x1 PUSH1 0xA0 SHL SUB AND SWAP1 JUMP JUMPDEST PUSH1 0x1 PUSH1 0x1 PUSH1 0xA0 SHL SUB SWAP1 SWAP2 AND EQ PUSH2 0x837 JUMP JUMPDEST PUSH2 0x6F2 JUMP JUMPDEST MLOAD SWAP9 PUSH2 0x6F2 JUMP JUMPDEST MLOAD SWAP3 PUSH2 0x6F2 JUMP JUMPDEST MLOAD SWAP1 PUSH2 0xA88 PUSH2 0x187 JUMP JUMPDEST SWAP6 DUP7 MSTORE PUSH1 0x20 DUP7 ADD MSTORE PUSH1 0x40 DUP6 ADD MSTORE PUSH1 0x60 DUP5 ADD MSTORE PUSH1 0x1 PUSH1 0x1 PUSH1 0xA0 SHL SUB AND PUSH1 0x80 DUP4 ADD MSTORE JUMP JUMPDEST SWAP1 JUMP JUMPDEST PUSH2 0xAB5 PUSH2 0x82A JUMP JUMPDEST PUSH2 0xA35 JUMP JUMPDEST POP PUSH2 0xA70 DUP2 DUP6 PUSH1 0x20 PUSH1 0x0 PUSH2 0xA26 PUSH2 0xA77 SWAP8 DUP15 SWAP16 PUSH2 0xAAA SWAP16 DUP16 SWAP13 DUP16 DUP16 SWAP1 PUSH2 0xA7E SWAP16 DUP12 SWAP16 SWAP2 PUSH2 0x994 SWAP3 PUSH2 0x957 DUP15 PUSH2 0x8FD PUSH2 0xA00 SWAP11 PUSH2 0x71C JUMP JUMPDEST PUSH1 0x41 DUP2 MLOAD SUB PUSH2 0xB10 JUMPI PUSH1 0x20 DUP2 ADD MLOAD SWAP2 PUSH1 0x60 PUSH1 0x40 DUP4 ADD MLOAD SWAP3 ADD MLOAD PUSH1 0x0 BYTE SWAP1 JUMP JUMPDEST PUSH1 0x40 MLOAD PUSH3 0x461BCD PUSH1 0xE5 SHL DUP2 MSTORE PUSH1 0x20 PUSH1 0x4 DUP3 ADD MSTORE PUSH1 0x18 PUSH1 0x24 DUP3 ADD MSTORE PUSH32 0x696E76616C6964207369676E6174757265206C656E6774680000000000000000 PUSH1 0x44 DUP3 ADD MSTORE PUSH1 0x64 SWAP1 REVERT JUMPDEST ISZERO PUSH2 0xB5C JUMPI JUMP JUMPDEST PUSH1 0x40 MLOAD PUSH3 0x461BCD PUSH1 0xE5 SHL DUP2 MSTORE PUSH1 0x20 PUSH1 0x4 DUP3 ADD MSTORE PUSH1 0x19 PUSH1 0x24 DUP3 ADD MSTORE PUSH32 0x596F7520617265206E6F7420746865206F70657261746F722100000000000000 PUSH1 0x44 DUP3 ADD MSTORE PUSH1 0x64 SWAP1 REVERT JUMPDEST SWAP1 SWAP2 PUSH2 0xC13 PUSH1 0x80 DUP8 PUSH2 0xC05 PUSH2 0xBFD PUSH32 0x2C4F4F63CA317B393C3B566783FF16738E546A073789D71ACFE23FC03BC9184C SWAP13 PUSH1 0x0 SWAP13 PUSH2 0xC1B SWAP13 PUSH2 0xC59 SWAP13 PUSH1 0x20 SWAP13 DUP11 PUSH2 0xBF8 SWAP14 PUSH1 0x1 DUP1 PUSH1 0xA0 SHL SUB SWAP15 DUP16 PUSH1 0x1 SLOAD AND CALLER EQ PUSH2 0xB55 JUMP JUMPDEST PUSH2 0x877 JUMP JUMPDEST SWAP2 CHAINID EQ PUSH2 0xCB3 JUMP JUMPDEST ADD MLOAD PUSH1 0x1 PUSH1 0x1 PUSH1 0xA0 SHL SUB AND SWAP1 JUMP JUMPDEST SWAP6 DUP7 SWAP2 PUSH2 0xCD2 JUMP JUMPDEST DUP8 SLOAD PUSH1 0x40 MLOAD PUSH4 0x23B872DD PUSH1 0xE0 SHL DUP2 MSTORE PUSH1 0x1 PUSH1 0x1 PUSH1 0xA0 SHL SUB SWAP2 DUP3 AND PUSH1 0x4 DUP3 ADD MSTORE SWAP3 AND PUSH1 0x24 DUP4 ADD MSTORE PUSH1 0x44 DUP3 ADD DUP2 SWAP1 MSTORE SWAP7 SWAP1 SWAP5 DUP6 SWAP4 DUP5 SWAP3 SWAP2 DUP4 SWAP1 PUSH1 0x64 DUP3 ADD SWAP1 JUMP JUMPDEST SUB SWAP4 AND GAS CALL DUP1 ISZERO PUSH2 0xCA6 JUMPI JUMPDEST PUSH2 0xC88 JUMPI JUMPDEST POP PUSH1 0x40 DUP1 MLOAD PUSH1 0x1 PUSH1 0x1 PUSH1 0xA0 SHL SUB SWAP3 SWAP1 SWAP3 AND DUP3 MSTORE PUSH1 0x20 DUP3 ADD SWAP3 SWAP1 SWAP3 MSTORE LOG1 JUMP JUMPDEST PUSH2 0xC9F SWAP1 PUSH1 0x20 RETURNDATASIZE DUP2 GT PUSH2 0x622 JUMPI PUSH2 0x61A DUP2 DUP4 PUSH2 0x165 JUMP JUMPDEST POP CODESIZE PUSH2 0xC6A JUMP JUMPDEST PUSH2 0xCAE PUSH2 0x82A JUMP JUMPDEST PUSH2 0xC65 JUMP JUMPDEST ISZERO PUSH2 0xE JUMPI JUMP JUMPDEST SWAP1 DUP2 PUSH1 0x20 SWAP2 SUB SLT PUSH2 0xE JUMPI MLOAD DUP1 ISZERO ISZERO DUP2 SUB PUSH2 0xE JUMPI SWAP1 JUMP JUMPDEST PUSH1 0x0 SWAP1 DUP1 MLOAD DUP3 SWAP1 JUMPDEST DUP1 DUP3 LT PUSH2 0xCE7 JUMPI POP POP POP SWAP1 JUMP JUMPDEST SWAP1 SWAP2 SWAP4 SWAP3 PUSH1 0x1 SWAP1 PUSH2 0xCF8 DUP5 DUP8 PUSH2 0x6F2 JUMP JUMPDEST MLOAD DUP2 ADD DUP1 SWAP2 GT PUSH2 0xD26 JUMPI JUMPDEST SWAP3 PUSH1 0x0 NOT DUP2 EQ PUSH2 0xD19 JUMPI JUMPDEST ADD SWAP1 SWAP4 SWAP2 SWAP3 SWAP4 PUSH2 0xCDA JUMP JUMPDEST PUSH2 0xD21 PUSH2 0x6C3 JUMP JUMPDEST PUSH2 0xD0E JUMP JUMPDEST PUSH2 0xD2E PUSH2 0x6C3 JUMP JUMPDEST PUSH2 0xD03 JUMP JUMPDEST SWAP6 SWAP1 SWAP8 SWAP3 SWAP10 SWAP9 SWAP4 SWAP5 PUSH2 0xD59 SWAP6 SWAP8 SWAP3 SWAP8 PUSH1 0x1 DUP1 PUSH1 0xA0 SHL SUB SWAP12 PUSH2 0xBF8 DUP14 PUSH1 0x1 SLOAD AND CALLER EQ PUSH2 0xB55 JUMP JUMPDEST SWAP3 PUSH1 0x20 SWAP3 PUSH2 0xD86 PUSH2 0xD7C PUSH1 0x60 DUP7 DUP9 ADD MLOAD SWAP8 ADD MLOAD PUSH1 0x0 MSTORE PUSH1 0x3 PUSH1 0x20 MSTORE PUSH1 0x40 PUSH1 0x0 KECCAK256 SWAP1 JUMP JUMPDEST SLOAD PUSH4 0xFFFFFFFF AND SWAP1 JUMP JUMPDEST SWAP1 PUSH1 0x0 SWAP5 PUSH2 0xE45 DUP2 DUP9 PUSH2 0xDA5 PUSH2 0xA4E PUSH2 0xA4E DUP12 SLOAD PUSH1 0x1 DUP1 PUSH1 0xA0 SHL SUB AND SWAP1 JUMP JUMPDEST SWAP12 DUP9 AND PUSH2 0xDF4 DUP4 DUP4 DUP13 PUSH2 0xDBF PUSH1 0x4 SLOAD PUSH1 0x1 DUP1 PUSH1 0xA0 SHL SUB AND SWAP1 JUMP JUMPDEST PUSH1 0x40 MLOAD PUSH4 0x95EA7B3 PUSH1 0xE0 SHL DUP2 MSTORE PUSH1 0x1 PUSH1 0x1 PUSH1 0xA0 SHL SUB SWAP1 SWAP2 AND PUSH1 0x4 DUP3 ADD MSTORE PUSH1 0x24 DUP2 ADD SWAP3 SWAP1 SWAP3 MSTORE SWAP1 SWAP3 DUP4 SWAP2 SWAP1 DUP3 SWAP1 DUP2 SWAP1 PUSH1 0x44 DUP3 ADD SWAP1 JUMP JUMPDEST SUB SWAP2 DUP7 GAS CALL DUP1 ISZERO PUSH2 0xF7F JUMPI JUMPDEST PUSH2 0xF62 JUMPI JUMPDEST POP DUP10 SLOAD PUSH1 0x40 MLOAD PUSH4 0x23B872DD PUSH1 0xE0 SHL DUP2 MSTORE PUSH1 0x1 PUSH1 0x1 PUSH1 0xA0 SHL SUB SWAP1 SWAP2 AND PUSH1 0x4 DUP3 ADD MSTORE ADDRESS PUSH1 0x24 DUP3 ADD MSTORE PUSH1 0x44 DUP2 ADD SWAP3 SWAP1 SWAP3 MSTORE SWAP1 SWAP3 DUP4 SWAP2 SWAP1 DUP3 SWAP1 DUP12 SWAP1 DUP3 SWAP1 PUSH1 0x64 DUP3 ADD SWAP1 JUMP JUMPDEST SUB SWAP3 GAS CALL DUP1 ISZERO PUSH2 0xF55 JUMPI JUMPDEST PUSH2 0xF37 JUMPI JUMPDEST POP POP PUSH1 0x4 SLOAD PUSH2 0xE6E SWAP1 PUSH2 0xA4E SWAP1 PUSH1 0x1 PUSH1 0x1 PUSH1 0xA0 SHL SUB AND DUP2 JUMP JUMPDEST SWAP3 DUP4 EXTCODESIZE ISZERO PUSH2 0xF33 JUMPI PUSH1 0x40 MLOAD PUSH4 0x47012877 PUSH1 0xE1 SHL DUP2 MSTORE PUSH1 0x4 DUP2 ADD DUP9 SWAP1 MSTORE PUSH4 0xFFFFFFFF SWAP4 DUP5 AND PUSH1 0x24 DUP3 ADD MSTORE PUSH1 0x44 DUP2 ADD SWAP10 SWAP1 SWAP10 MSTORE PUSH1 0x1 PUSH1 0x1 PUSH1 0xA0 SHL SUB SWAP1 SWAP5 AND PUSH1 0x64 DUP10 ADD MSTORE PUSH1 0x0 PUSH1 0x84 DUP10 ADD MSTORE PUSH1 0xA4 DUP9 ADD SWAP4 SWAP1 SWAP4 MSTORE SWAP1 SWAP2 AND PUSH1 0xC4 DUP7 ADD MSTORE SWAP3 SWAP4 SWAP2 SWAP3 PUSH32 0xEF170FF2108A9A34FFAE60C98D6E9EFF09D2F464437449BB09DD4231CED1CF58 SWAP3 SWAP1 DUP3 SWAP1 DUP3 SWAP1 DUP2 DUP4 DUP2 PUSH1 0xE4 DUP2 ADD SUB SWAP3 GAS CALL DUP1 ISZERO PUSH2 0xF26 JUMPI JUMPDEST PUSH2 0xF0D JUMPI JUMPDEST POP DUP1 LOG2 JUMP JUMPDEST DUP1 PUSH2 0xF1A PUSH2 0xF20 SWAP3 PUSH2 0x144 JUMP JUMPDEST DUP1 PUSH2 0xC9 JUMP JUMPDEST CODESIZE PUSH2 0xF08 JUMP JUMPDEST PUSH2 0xF2E PUSH2 0x82A JUMP JUMPDEST PUSH2 0xF03 JUMP JUMPDEST DUP6 DUP1 REVERT JUMPDEST DUP2 PUSH2 0xF4D SWAP3 SWAP1 RETURNDATASIZE LT PUSH2 0x622 JUMPI PUSH2 0x61A DUP2 DUP4 PUSH2 0x165 JUMP JUMPDEST POP CODESIZE DUP1 PUSH2 0xE55 JUMP JUMPDEST PUSH2 0xF5D PUSH2 0x82A JUMP JUMPDEST PUSH2 0xE50 JUMP JUMPDEST PUSH2 0xF78 SWAP1 DUP5 RETURNDATASIZE DUP7 GT PUSH2 0x622 JUMPI PUSH2 0x61A DUP2 DUP4 PUSH2 0x165 JUMP JUMPDEST POP CODESIZE PUSH2 0xE05 JUMP JUMPDEST PUSH2 0xF87 PUSH2 0x82A JUMP JUMPDEST PUSH2 0xE00 JUMP JUMPDEST SWAP1 DUP1 PUSH1 0x20 SWAP4 SWAP3 DUP2 DUP5 MSTORE DUP5 DUP5 ADD CALLDATACOPY PUSH1 0x0 DUP3 DUP3 ADD DUP5 ADD MSTORE PUSH1 0x1F ADD PUSH1 0x1F NOT AND ADD ADD SWAP1 JUMP INVALID LOG2 PUSH5 0x6970667358 0x22 SLT KECCAK256 PUSH1 0x4C JUMP 0xEC AND 0xE6 CHAINID 0x23 0x49 0xB9 PUSH27 0x2A325AC4547A761F63BBED6AF3D34F5379B975544064736F6C6343 STOP ADDMOD GT STOP CALLER "
        },
        "methodIdentifiers": {
          "operator()": "570ca735",
          "proxyDepositForBurn(address,uint256,uint32,uint256[],uint256[],uint256[],uint256,uint256,address,bytes)": "4b8c3676",
          "proxyReceiveMessage(bytes,bytes)": "d56dc8df",
          "proxyTransfer(address,uint256[],uint256[],uint256[],uint256,uint256,address,bytes)": "48eef5b6",
          "signatureVerifier(uint256[],uint256[],uint256[],uint256,uint256,address,bytes)": "bf37e8c6",
          "signer()": "238ac933",
          "usedNonces(uint256)": "6717e41c"
        }
      }
    }
  }
}